:020000040800F2
:10000000B81E0020B9020008D52F0008492E0008AC
:10001000D12F00080D1F0008C55700080000000080
:100020000000000000000000000000008F410008F8
:100030004D2800080000000039350008B54A0008C6
:10004000D3020008D3020008D3020008F93A0008DE
:10005000D3020008D3020008D3020008D30200082C
:10006000D3020008D3020008D3020008352200089A
:10007000D3020008D3020008D3020008D30200080C
:10008000D3020008D3020008D3020008D3020008FC
:1000900049560008D3020008D302000801290008CD
:1000A000D3020008D3020008D3020008D3020008DC
:1000B000D3020008554C0008D3020008D302000800
:1000C000D3020008D3020008D3020008D3020008BC
:1000D000D3020008F1500008795100089D51000832
:1000E000D3020008D3020008DB530008D302000843
:1000F000D3020008D3020008D3020008D30200088C
:10010000D3020008D3020008D3020008D30200087B
:10011000D3020008D3020008D3020008D30200086B
:10012000D3020008D3020008D3020008D30200085B
:1001300000F002F800F0B0F80AA090E8000C824449
:100140008344AAF10107DA4501D100F0A5F8AFF226
:10015000090EBAE80F0013F0010F18BFFB1A43F0A5
:10016000010318471C7B00003C7B00000A444FF051
:10017000000C10F8013B13F0070408BF10F8014B06
:100180001D1108BF10F8015B641E05D010F8016B4B
:10019000641E01F8016BF9D113F0080F1EBF10F8AF
:1001A000014BAD1C0C1B09D16D1E58BF01F801CBD2
:1001B000FAD505E014F8016B01F8016B6D1EF9D555
:1001C0009142D6D37047000000230024002500266A
:1001D000103A28BF78C1FBD8520728BF30C148BFAA
:1001E0000B6070476E2900F09F81702900F0E1825A
:1001F000662907F06C83652907F06983672907F092
:1002000066836129AFF3008003681B0A28BF41F0B1
:100210008001692900F04C81642900F04981752929
:1002200000F046816F2900F06E82782900F0AD82DF
:10023000E92900F00982E42900F00682F52900F09E
:100240000382EF2900F06B82F82900F0AC8203688A
:10025000DB0928BF41F08001632900F06086732923
:1002600000F06586E32900F07086F32900F07586BA
:10027000002070471FB500F0C1FE040000200021DF
:1002800007F060F8401C60600020002107F044F88F
:10029000E0601FBD10B510BD00F083FE1146FFF7F2
:1002A000E9FF06F049FC00F05BFF03B4FFF7F2FF43
:1002B00003BC05F000FC00000948804709480047DE
:1002C000FEE7FEE7FEE7FEE7FEE7FEE7FEE7FEE706
:1002D000FEE7FEE704480549034A054B7047000066
:1002E000DD4A000831010008B81A0020B81E0020BD
:1002F000B81A0020704700001CB50C46064B7B4422
:1003000069460090204600F028F90446002069461E
:1003100000F036F920461CBD7F02000010B5431CDA
:1003200002E010F8011B71B18107FAD14FF00132E0
:1003300002C88C1A8C4314EAC211F9D0C01A0A06FA
:1003400003D0C01E10BDC01A10BD0A0401D0801E0B
:1003500010BD0902FCD0401E10BD032A40F23080BF
:1003600010F0030C00F0158011F8013BBCF1020FF6
:10037000624498BF11F801CB00F8013B38BF11F877
:10038000013BA2F1040298BF00F801CB38BF00F88E
:10039000013B11F0030300F0DB82083AC0F0088053
:1003A00051F8043B083A51F804CBA0E80810F5E7EF
:1003B000121D5CBF51F8043B40F8043BAFF30080D2
:1003C000D20724BF11F8013B11F801CB48BF11F847
:1003D000012B24BF00F8013B00F801CB48BF00F817
:1003E000012B7047704770477047704770B50446DF
:1003F00085690068C10601D5302600E02026C007C7
:1004000007D070BDD4E9012130469047206A401CD6
:1004100020626D1EF6D570BD70B504468569007802
:10042000C00707D170BDD4E9012120209047206A80
:10043000401C20626D1EF6D570BD09684A0501D5C5
:1004400040B27047C905FCD500B2704709684A053B
:1004500001D5C0B27047C905FCD580B2704770B5F0
:100460000C460546012A05D02878800600D5EA69A1
:10047000002302E0012305E05B1C934202D2E05C12
:100480000028F9D1A869E618C01AA861286A18449A
:1004900028622846FFF7AAFF04E0D5E9012114F8F5
:1004A000010B9047B442F8D32846FFF7B5FF70BD63
:1004B0002DE9F0410646002410687529314616A53D
:1004C00010D0FFF7BAFF002802DA404213A507E078
:1004D00031688A0701D512A502E0490704D511A5A4
:1004E000012401E0FFF7B2FF00210A2206F12407F0
:1004F00009E0B0FBF2FCB0FBF2F302FB1C00303071
:1005000078541846491C0028F3D123462A46304621
:10051000BDE8F04100F093BA000000002D0000009B
:100520002B0000002000000011680268006A5305DB
:1005300001D508700AE0D30501D5088006E013064E
:1005400003D5C217C1E9000200E00860012070472E
:1005500001694A1C02610878704700B58FB0CDE987
:1005600001310021059105497944CDE90310114677
:10057000684600F029F90FB000BD0000E5FFFFFF5D
:100580000A6802F8010B0A60704700002DE9FF5F5E
:1005900015468A460446DFF8AC80F8440027D8E9BF
:1005A00000103E46CDE9001010E03AF816106A46F9
:1005B00002A800F0D6FC411C07D02178890603D59B
:1005C000E269391891420DD80744761C20788006DC
:1005D00002D5E069B84205DDAE42E6DB3AF8160026
:1005E0000028E2D1A069C01BA0612046FFF7FEFEF3
:1005F000D8E90010CDE90010002017E03AF81810F3
:100600006A4602A800F0ADFCB0F1FF3F81460BD076
:1006100000250DF1080B05E0D4E901211BF80500C8
:1006200090476D1C4D45F7D308F10100B04280465C
:10063000E4DB206A384420622046FFF7EDFEBDE887
:10064000FF9F00000A7600002DE9F0418046D21D90
:1006500022F007020025D2E90002F52915A614D0E0
:10066000011E72F1000106DA0023D0EB030063EBF8
:10067000020211A608E0D8F800108B0701D50FA6DA
:1006800002E0490701D50EA601251146002408F114
:10069000240704E000F08EF930323A55641C50EA29
:1006A0000102F7D12B46324621464046BDE8F041D3
:1006B00000F0C5B9000000002D0000002B00000074
:1006C0002000000030B4002100F1240408E002F012
:1006D0000705D208303542EA4372DB086554491CED
:1006E00052EA0305F3D10468002310A2250707D5B9
:1006F000A40600D421B1C46901230DA2641EC46103
:1007000030BC00F09CB910B5044621461068FFF7D4
:100710009DFE02462046BDE810400023D2E7D21DD0
:1007200022F00701D1E90023CCE70000000000001F
:1007300030000000F0B40D460188090502D5214CB7
:100740007C4402E01F4C7C440E34002100F124065E
:1007500008E002F00F071209E75D42EA03721B0985
:100760007754491C52EA0307F3D102780023120799
:1007700004D5702D06D009B1022311342246F0BCF5
:1007800000F05DB901231034F8E770B504460D465A
:1007900021461068FFF75AFE024629462046BDE86A
:1007A00070400023C6E7D21D22F00703D3E90023DF
:1007B000C0E70368126843F0200303600823C361A5
:1007C0000023B7E76C7400002DE9F05F894604460A
:1007D0004FF0000ADFF874B1FB44C0F820A02046B7
:1007E000E1688847002874D0252806D0D4E9012183
:1007F0009047206A401C2062F1E700265F462046B1
:10080000E16888472028054607DB312D05D2781995
:1008100010F8200C08B10643F1E7B00701D526F027
:100820000406C4F81CA00027C4F818A02A2D09D07B
:10083000284605F039F938B304EB8708303DC8F88D
:10084000185019E059F8041B204604EB8702916107
:10085000E1688847012F054618D1E069002820DAB1
:1008600026F020061DE0D8F8180000EB800005EB0C
:1008700040003038C8F818002046E168884705462F
:1008800005F012F90028EED1012F0AD02E2D08D143
:100890002046E16888477F1C0546022F46F0200667
:1008A000C4DBA069002803DA404246F00106A061DB
:1008B000F00701D026F010066C2D0BD0682D09D062
:1008C0004C2D39D06A2D35D0742D35D07A2D33D0BA
:1008D00016E038E0E1682F4620468847B8420546D2
:1008E00009D16C2F26D04FF48060E1680643204682
:1008F0008847054604E06C2F1AD04FF480700643F9
:100900000DB3A5F14100192802D8203546F4006640
:100910004A462946204626604E46FFF763FC80B1D2
:1009200001280BD0F61D26F0070000F1080956E754
:100930004020E4E78020D8E70020D6E706F104094C
:100940004DE7284652E7206ABDE8F09FFC7300009F
:1009500010B5203AC0F00B80B1E81850203AA0E85A
:100960001850B1E81850A0E81850BFF4F5AF5FEA8E
:10097000027C24BFB1E81850A0E8185044BF18C941
:1009800018C0BDE810405FEA827C24BF51F8043BE8
:1009900040F8043B08BF7047D20728BF31F8023B3C
:1009A00048BF11F8012B28BF20F8023B48BF00F8D0
:1009B000012B704730B5B0F10A024FEA900E71F189
:1009C00000034EEA817EB0EB0E0061EB91014FEA2D
:1009D000101E4EEA017E10EB0E0041EB11114FEAA2
:1009E000102E4EEA016E10EB0E0041EB11214FEA82
:1009F000104E4EEA014E10EB0E0041EB1141401833
:100A000041F100014FEAD00040EA41704FEAD101C4
:100A100010EB80054FEA810444EA907444EB010432
:100A20006D1944EB0404521BA3414FF0000348BF6F
:100A30000A3200D530BD401C41F1000130BD2DE926
:100A4000F0470D4699469246044600F12408016895
:100A5000880604D5E06921F01001216000E0012042
:100A6000A84201DD471B00E00027A1697A1902EBCB
:100A70000900081AA0612078C00602D42046FFF7BA
:100A8000B5FC002608E0D4E901211AF806009047D9
:100A9000206A401C761C20624E45F4DB2078C0069C
:100AA0000AD52046FFF7A2FC06E0D4E90121302058
:100AB0009047206A401C2062381EA7F10107F4DC31
:100AC00007E0D4E9012118F805009047206A401C8E
:100AD0002062281EA5F10105F3DC2046FFF79CFCEF
:100AE0002078000602D50220BDE8F0870120FBE750
:100AF00070472DE9FF4F0C461E464FF0FF378BB075
:100B0000D2E90001DDF860800A908A46C1F30A55F7
:100B100005B93D46002108464FF00000BAF1000F2C
:100B200000F4400005DA00EB80004FF4400101EAD8
:100B300050004FEA9059B9F1010F00DDB9460A980B
:100B400050EA4A000ED044F61050A5F2FF35454356
:100B50002F14B8F1000F1ED07542291E1EDDC9F1F9
:100B600000021CE0B8F1010F4FF0000001D030216D
:100B700003E0F24305E02154401CB042FBDB304669
:100B80000022002121540B99C1F80880C1E90020FE
:100B90000FB0BDE8F08FBD1B6D1CDEE74A4600DAE2
:100BA000694206A800F06EFA06AB93E8070003ABB3
:100BB00083E8070050460A9900F020FB8DE8070003
:100BC000A0F500501F3800900398002D09DD42F277
:100BD0001F014A46084403A90390684600F07FFDC0
:100BE00008E0A0F500504A461F3803A90390684664
:100BF00000F089FD8DE807000004000C03D04FF0E1
:100C0000FF30410800E01046B8F1000F03D0002289
:100C1000009215461EE0751E05D4FFF7CBFE30325C
:100C200062556D1EF9D5B3460122084302D0002259
:100C30007F1C04E02078302801D100227F1E002A8A
:100C4000099786D01DE0112D07DAFFF7B3FE303289
:100C500062556D1C50EA0102F5D1084302D000989C
:100C6000C8B10EE00021681E05E0235C625C63549D
:100C70002254401E491C8142F7DBAB46A81B401E94
:100C80000990002004F80B000B98099AC0F808801E
:100C9000C0E9002B7CE711264FF0000859E72DE949
:100CA000F04F88460446D21D22F0070191B0D1E9E9
:100CB0000001CDE90A0104F0E3FE02460B98C00FE3
:100CC00001D02D2007E02068810701D52B2002E00C
:100CD000202101EAC000032A099001D0072A05DB80
:100CE00003464146204600F08DF90BE1207880064E
:100CF00001D5E06900E00620B8F1650F814606D015
:100D0000B8F1660F18D0B8F1670F70D131E000204C
:100D1000B9F1110F009001DB112301E009F101038A
:100D20000AAA01A90CA8FFF7E4FEDDE90C70002671
:100D300009F10105834647E001204B4600904FF042
:100D400000470AAA01A90CA8FFF7D3FEDDE90DB000
:100D50000C995D46002610B909F101000D18B9EB98
:100D6000050003D4C0F1FF3609F10105A5EB090028
:100D70002BE0B9F1010F01DA4FF001090020B9F1C0
:100D8000110F0090484601DD112300E003460AAA36
:100D900001A90CA8FFF7ADFEDDE90C704D46002659
:100DA0008346207800070AD4AB4500DA5D4601A8E7
:100DB000012D04DD411911F8011C302907D04F45E0
:100DC00002DA17F1040F04DA012082460FE06D1EEB
:100DD000EEE7002F02DCED1B3E4403E0781CA84246
:100DE00000DD7D1CB81B00F1010A4FF000472078A0
:100DF000000703D4AA4501DB4FF0FF3A0021B7F109
:100E0000004F0DF143088DF8431024D002202B230E
:100E1000002F01DA7F422D230A21021EA0F10100DA
:100E200000DC5FB197FBF1FC97FBF1F201FB1C7C4E
:100E300017460CF1300C08F801CDEEE7A8F10100DF
:100E400003702188090501D5452100E06521A0F145
:100E5000010800F8011C09980FA9A1EB0807FF1D64
:100E600000B10120411901EBEA70A1693844081A68
:100E7000401EA0612078C00602D42046FFF7B6FAD3
:100E8000099828B1D4E901219047206A401C2062CA
:100E90002078C00622D52046FFF7A8FA1EE0002ED3
:100EA00004DBB34502DD01A8805D00E03020D4E919
:100EB00001219047206A401C2062761CAAF10100A3
:100EC0005FEA000A0AD100F099F8C0680168405C46
:100ED000D4E901219047206A401C2062281EA5F118
:100EE0000105DCDC07E0D4E9012118F8010B90478B
:100EF000206A401C2062381EA7F10107F3DC20465F
:100F0000FFF78AFA032011B043E610B5436913B125
:100F1000AFF3008001E0FFF7A2FA012010BD1278C4
:100F200000F124010A7000224A700122EDE71168E5
:100F30004FF0FF32E9E710B5436913B1AFF300801A
:100F400001E0FFF723FB012010BD128800F124010E
:100F500082840022C2840122EDE711684FF0FF3243
:100F6000E9E770B516460C46054600F03FF8036801
:100F700093F80101012806D0FF2C0FD8185D68B145
:100F800001202C7070BDD3F807013246214603F2D0
:100F9000071303442846BDE8704018474FF0FF3060
:100FA00070BD754600F0E6F8AE460500694653464A
:100FB00020F00700854618B020B5FFF78BF9BDE893
:100FC00020404FF000064FF000074FF000084FF0B0
:100FD000000B21F00701AC46ACE8C009ACE8C00941
:100FE000ACE8C009ACE8C0098D46704710B500F008
:100FF00005F8001D10BD00BF4D630000004870479C
:10100000781A00202DE9F0411F46044603260168A6
:10101000072A01F4006004DB08B116A505E016A557
:1010200003E008B115A500E015A521F0100020602F
:10103000A069C01EA0610FB1401EA0612046FFF74D
:10104000D5F94FB1D4E9012138469047206A401CB8
:101050002062C01C206206E0206AFAE7D4E9012180
:1010600015F8010B9047761EF8D22046FFF7D4F909
:10107000BDE8F0814E414E006E616E00494E460063
:10108000696E66002DE9F047814616468AB03348FE
:1010900078440DC88DE80D0030487844801C03ACBE
:1010A0000DC884E80D0041F69B300844372190FBC1
:1010B000F1F290FBF1F5A5F1800501FB12041B3C58
:1010C00002D56442012000E00020DFF890A08046B5
:1010D0000027FA44AAF1BE0A0DE0E00709D0324623
:1010E000684607EB47010AEB810100F00CFB8DE835
:1010F000070064107F1C002CEFD1184F7F44AC3FD9
:1011000018E0E80714D007EB04100DF1180A90E876
:101110000E008AE80E00C068F04201D198190890CC
:10112000324606A903A800F0EEFA03AB83E80700F5
:101130006D10641C002DE4D132466946B8F1000FF1
:1011400003A802D000F0CBFA01E000F0DCFAC9E914
:101150000001C9F808200AB0BDE8F087D46B000090
:1011600010B50446AFF300802046BDE81040FFF7FD
:101170009CB8000000487047581A00204FF0013C0E
:1011800050F8042B51F8043B9A4221D1A2EB0C03F6
:10119000934313EACC1317D150F8042B51F8043BB6
:1011A0009A4215D1A2EB0C03934313EACC130BD153
:1011B00050F8042B51F8043B9A4209D1A2EB0C03DE
:1011C000934313EACC13DBD04FF00000704700BF0D
:1011D000D01A01BAB1FA81F101F0180122FA01F036
:1011E000CB40C1F12001DBB2C0B2C01A2CFA01F32E
:1011F000D11A914311EAC311E6D170475FEA400C5E
:1012000008BF91F0000F4FEA8C234FEAC12243EA56
:1012100051514FEA1C5018BF00F5F0404FEA300022
:1012200018BF41F000415FEA6C5C00F02980BCF11E
:10123000FF3F08BF40F080407047130C06BF120408
:101240004FF0100C4FF0000C130E04BF12020CF103
:10125000080C130F04BF12010CF1040C930F04BF10
:1012600092000CF1020CD30F04BF52000CF1010CE0
:1012700011464FF00002A0F11F00A0EB0C007047D8
:1012800011F0004F08BF704731F000413FF4D5AF77
:101290000B0C06BF09044FF0100C4FF0000C0B0EA6
:1012A00004BF09020CF1080C0B0F04BF09010CF17B
:1012B000040C8B0F04BF89000CF1020CCB0F04BF90
:1012C00049000CF1010CCCF12003A0EB0C0022FA38
:1012D00003F302FA0CF241EA030100F10100704746
:1012E00020F07F4C80EA030023F07F47ACEB07033C
:1012F00003F57C5300F0004003F1FF032DE9804922
:101300004FEA154B09B44FEA144325EA0B4E24EA81
:1013100003480FF2042606EB132749083E785FEADC
:10132000320203FB0667C7F5000707FB06F64FEA24
:1013300054374FEAD64606F1020607FB066CCCF19D
:10134000005C4FEA1C472CEA074C07FB06F40CFB39
:1013500006F504EB15464FEA961634BF00204FF011
:1013600000404FEAD13706FB07FC4FEA1C4C0CFB50
:101370000BF7D21B03FB0CF761EB07010CFB0EF71D
:10138000B0EB074072EB17420CFB08F734BFA2EB3F
:101390000742B2EB074261EB17414FEA0C444FEAB8
:1013A000910706FB07FC4FEA1C4C0CFB0BF7B0EB5C
:1013B000C74072EB573203FB0CF734BFA2EBC742B6
:1013C000B2EBC74261EB57310CFB0EF7B0EBC70035
:1013D00072EB57720CFB08F734BFA2EBC702B2EBFB
:1013E000C70261EB5771039F4FEA816141EA921195
:1013F00004EBCC044FEAD1374FEA826206FB07FCCC
:1014000042EA90124FEA80604FEA1C4C0CFB0BF74B
:10141000D21B03FB0CF761EB07010CFB0EF7B0EBE3
:10142000074072EB17420CFB08F734BFA2EB0742F0
:10143000B2EB074261EB17414FEA8C554FEA910737
:1014400004EB9C2406FB07FC4FEA1C4C0CFB0BF73F
:10145000B0EBC74072EB573203FB0CF734BFA2EB83
:10146000C742B2EBC74261EB57310CFB0EF7B0EB52
:10147000C70072EB57720CFB08F734BFA2EBC70230
:10148000B2EBC70261EB577115EB4C254FEA816156
:1014900041EA92114FEA82624FEAD13742EA901252
:1014A00006FB07FC44F100044FEA80604FEA1C4C45
:1014B0000CFB0BF7D21B03FB0CF761EB07010CFBDA
:1014C0000EF7B0EB074072EB17420CFB08F734BF86
:1014D000A2EB0742B2EB074261EB174115EB1C157B
:1014E0004FEA813141EA92414FEA823242EA904228
:1014F0004FEA80304FEA0C7644F1000448EA034397
:101500004EEA0B484FF0000EB2EB080C71EB0307EC
:1015100024BF624639464EEB0E0E4FF0000B00180A
:10152000524149414BEB0B0BB2EB080C71EB03073B
:101530007BF1000B24BF624639464EEB0E0E4FF096
:10154000000B0018524149414BEB0B0BB2EB080C5E
:1015500071EB03077BF1000B24BF624639464EEB6B
:101560000E0E51EA020718BF46F0010616EB0E7682
:1015700055F1000254F1000103D5BDE88901BDE831
:101580000088BDE88901BDE80048B619524141EB29
:101590000101A3F10103704780807F7E7D7C7B7A0F
:1015A0007978777676757473727171706F6E6E6D0F
:1015B0006C6C6B6A6A6968686766666564646363B5
:1015C00062616160605F5F5E5E5D5D5C5C5B5B5A3B
:1015D0005A595958585757565655555554545353A8
:1015E00052525251515050504F4F4F4E4E4D4D4D03
:1015F0004C4C4C4B4B4B4A4A4A494949484848474E
:10160000474747464646454545444444444343438B
:101610004342424242414141002B26D4770021D02F
:101620001CB54FEA370703B44FF010004FF010011C
:101630004FF000000FBCBDE810400BF1010BBBF1F7
:10164000010F08BF5FEA170722BF12F1010211F173
:1016500001014FF0004143F1000300F0004043EA74
:1016600000007047F9D35708DAE746EA064613F157
:10167000400F4FEA16461FDD13F1200FDFBF164360
:101680000A46002120335B42C8D0C3F1200746EA56
:10169000064602FA07F74FEA164646EA0706C3F17E
:1016A000200722FA03F201FA07F721FA03F14FF0BB
:1016B000000342EA0702B1E746EA020646EA0646A6
:1016C0004FEA164646EA0106BCBF46EA0646360C15
:1016D0004FF000034FF000024FF000019EE72DE9AC
:1016E000C048934630B491E8380007C831EA400C4E
:1016F00048BF34EA430C03D5FFF7F2FDFFF78CFF38
:10170000F0BCBDE800882DE9C048934630B491E8AC
:10171000380007C810F0804F08BF13F0804F03D186
:1017200000F005F8FFF778FFF0BCBDE8008820F076
:101730007F4780EA030023F07F4C07EB0C03A3F5FF
:101740007C5300F00040A3F1FE0392F0000F00F084
:10175000B38095F0000F00F077802DE901494FEA42
:1017600011404FEA144621EA004800FB06FC24EA37
:10177000064708FB06F607FB08F800FB07F718EB1F
:1017800006484CEB164C4FEA124B18EB07484FEA51
:1017900015464CEB174022EA0B4E0BFB06FC25EAE4
:1017A00006470EFB06F607FB0EFE0BFB07F71EEBCC
:1017B000064E4CEB164C4FF000061EEB074E4CEB62
:1017C000174B18EB0B0840F1000018EB0E0B58EB11
:1017D000000840F100008F1A4FF000013CBFC943E0
:1017E000661B14BFB5EB040C00213CBFC943F61BBC
:1017F0004FEA17444EEA8E0E27EA04454FEA1C478B
:1018000004FB07622CEA074C05FB07F70CFB05F607
:1018100004FB0CFC16EB074642EB174216EB0C469A
:1018200042EB1C421BEB060658EB0202414146EA22
:101830009E0601D5BDE80189B619524141EB01016F
:10184000A3F10103BDE801894FEA14454FEA1147AE
:1018500024EA054621EA074C05FB07F406FB07F7D7
:101860000CFB06F105FB0CFC11EB074144EB1744A4
:101870004FEA124711EB0C4144EB1C4422EA074C9F
:1018800005FB07F206FB07F70CFB06F605FB0CFC55
:1018900016EB074642EB174216EB0C4642EB1C4593
:1018A0006A1854F1000148BF7047B619524141EB24
:1018B0000101A3F10103704795F0000F37D04FEA03
:1018C00011424FEA144721EA024624EA074C02FB80
:1018D00007F106FB07F70CFB06F402FB0CFC14EB0C
:1018E000074441EB17414FEA154714EB0C4441EB19
:1018F0001C4125EA074C02FB07F506FB07F70CFB2A
:1019000006F602FB0CFC16EB074645EB174516EBFB
:101910000C4645EB1C42121951F1000148BF7047BB
:10192000B619524141EB0101A3F1010370474FEA9F
:1019300014454FEA114724EA054621EA074C05FB06
:1019400007F106FB07F70CFB06F24FF0000605FB5C
:101950000CFC12EB074241EB174112EB0C4251EB2E
:101960001C4148BF7047921841EB0101A3F10103EC
:101970007047CA430260704721B1826842F0010299
:10198000826003E0826822F001028260704721B128
:10199000826842F48072826003E0826822F480727E
:1019A000826070471CB50121084601F017FE012135
:1019B0004FF4017001F042FE7020ADF804000020E9
:1019C0008DF8070001A9114801F014F94FF4004007
:1019D00001F0F8FD0E4800F061FC0E4800F0A0F8A0
:1019E00000210B4800F04EFC01210A48FFF7CFFF11
:1019F0000B208DF8000001208DF801008DF8020009
:101A00008DF80300684601F051FC1CBD0008014040
:101A1000080002400024014010B590B004460021A7
:101A20003D4800F02FFC3D480090019400200290BA
:101A30000320039000200490802005904000069031
:101A400080000790202008900002099000200A9052
:101A50006946314800F0D1FC002130484C3800F094
:101A600015FA00212D484C38FFF786FF00200B9017
:101A700001208DF8300000208DF831004FF46020F7
:101A80000D9000200E9003208DF83C000BA92348F8
:101A90004C3800F0BDF80223012204211F484C38C5
:101AA00000F02BF902231A4605211C484C3800F09F
:101AB00024F902230322062118484C3800F01DF9AE
:101AC00001220221144800F08FFC012113484C38F8
:101AD000FFF752FF0121104800F0D4FB0F484C38AB
:101AE00000F067F900BF0D484C3800F07BF8002883
:101AF000F9D10A484C3800F0DFF900BF07484C38EC
:101B000000F04FF80028F9D1012104484C3800F0CA
:101B1000BDF910B010BD0000080002404C24014087
:101B200010B504461248844208D10121401501F045
:101B300095FD0021601501F091FD17E00D488442EC
:101B400008D10121001501F089FD0021201501F0C7
:101B500085FD0BE00848844208D10121C80301F04B
:101B60007DFD00214FF4004001F078FD10BD000024
:101B70000024014000280140003C014021B182685E
:101B800042F40042826003E0826822F400428260F4
:101B900070470A460021816821F4E04111438160C9
:101BA0007047014600208A6802F004020AB1012051
:101BB00000E0002070470246002013680B400BB184
:101BC000012000E00020704708B502460020009088
:101BD000009201F12800009B1844009000980068D2
:101BE00080B208BD014600208A6802F008020AB1EE
:101BF000012000E00020704710B50023CBB21AB1DD
:101C000044681C43446002E044689C43446010BD47
:101C100030B502460020002350680F4C20400D795B
:101C20000C6844EA05242043506090680B4C204027
:101C3000D1E902542C434D7944EA45042043906095
:101C4000D06A20F470000C7C641EE4B2234340EAA6
:101C50000350D06230BD0000FFFEF0FFFDF7F1FF42
:101C6000F0B504461546002000220026092911DDA2
:101C7000E068A1F10A0707EB470C072707FA0CF207
:101C80009043A1F10A0707EB470703FA07F2104355
:101C9000E0600CE0206901EB410C072707FA0CF229
:101CA000904301EB410703FA07F210432061A06B58
:101CB000C0F30156EF1C06F1010CA7EB0C0707EB74
:101CC000870C1F2707FA0CF29043EF1C06F1010C5A
:101CD000A7EB0C0707EB870701FA07F21043A06395
:101CE000F0BD10B50A4600210023816B21F440119C
:101CF000531E41EA0351816310BDF0B504460D4601
:101D000000200021092D11DDE068A5F10A0606EB8F
:101D10004607072606FA07F18843A5F10A0606EBEF
:101D2000460603FA06F10843E0600CE0206905EB83
:101D30004507072606FA07F1884305EB450603FA2F
:101D400006F108432061072A0FDA606B561E06EB86
:101D500086071F2606FA07F18843561E06EB8606FD
:101D600005FA06F10843606322E00D2A0FDA206BC2
:101D7000D61F06EB86071F2606FA07F18843D61FF3
:101D800006EB860605FA06F10843206310E0E06AD8
:101D9000A2F10D0606EB86071F2606FA07F1884317
:101DA000A2F10D0606EB860605FA06F10843E0628D
:101DB000F0BD816841F008018160704710B50022D4
:101DC0004FF490612F48FFF717FF4FF4E0412D4883
:101DD000FFF7DFFE01212B48FFF7D0FE0221294843
:101DE000FFF77FFF0723012206212648FFF738FF70
:101DF0000723022205212348FFF732FF042121484F
:101E0000FFF7B7FD01211F4800F04BF8002424E044
:101E100001211C4800F045F800BF04211948FFF7D4
:101E2000CAFE0028F9D018211648FFF7CDFE164942
:101E3000C989084400B21449C88114211148FFF728
:101E4000C3FE11498989084400B20F4988810421E1
:101E50000C48FFF78EFD601CC4B2202CD8DB00219B
:101E60000848FFF78BFE0848B0F90E0040114042C9
:101E70000549C8810846B0F90C00401140428881EC
:101E800010BD000000240140E801002021B182685B
:101E900042F4A002826003E0826822F4A002826021
:101EA000704721B1826842F40212826003E08268C6
:101EB00022F4021282607047816841F0040181605F
:101EC000704710B5012001F0D9FB002001F0D6FBCE
:101ED00010BD000008B501460020009003480090A6
:101EE0000098084400900098008808BD006C0040ED
:101EF00008B500220092044A0092009A024400921F
:101F0000009A116008BD0000006C004000BFFEE7B1
:101F10000146CAB20B1243EA0220704708B50020FE
:101F2000009022E19748008800F00F009649087061
:101F30000846007800287CD19448006894490880BD
:101F40000846008800F030009249088090480088D8
:101F500000F440508E4908808C4909684BF6BF72E6
:101F600001EA020080F4005080F0200040F40041BB
:101F700041F08001854A11608248008800F010001D
:101F800090BB1046006848F60F7108401146086083
:101F900000F07EFF7D4909684BF6BF7201EA02003E
:101FA0007B49098801F4805109B180F48050784957
:101FB000098801F4005109B180F40050754909887D
:101FC00001F0100109B180F010007249098801F098
:101FD000200109B180F0200081B241F4004141F0BC
:101FE00080016A4A116008BDFFE76848006880B256
:101FF0000090BDF8000000F40060B0B363480068D2
:10200000C0F30E0048F68F7108406049086002F086
:1020100049FA5E4909684BF6BF7201EA02005C4961
:10202000098801F4805109B180F480505849098829
:1020300000E056E001F4005109B180F40050554928
:10204000098801F0100109B180F010005149098898
:1020500001F0200109B180F0200081B241F400417B
:1020600041F08001494A1160BDE7FFE7BDF800007B
:1020700000F40040002878D044480068C0F30E0007
:1020800048F68F7108404149086001F0EDF93F4979
:1020900009684BF6BF7201EA02003D49098801F464
:1020A000805109B180F480503949098801F4005108
:1020B00009B180F400503749098801F0100109B1D5
:1020C00080F010003349098801F0200109B180F047
:1020D000200081B241F4004141F080012B4A11609F
:1020E00081E7294800782C4901EB8000D0F8000CEA
:1020F00080B20090BDF8000000F40040C0B122485A
:10210000007801EB8000D0F8000CC0F30E0048F618
:102110008F7108401C4909781F4A02EB8101C1F800
:10212000000C19490978491E1C4A52F821008047C1
:10213000BDF8000000F08000B8B1134800781649DF
:1021400001EB8000D0F8000C48F60F7108400E49F2
:102150000978114A02EB8101C1F8000C0A4909789B
:10216000491E0F4A52F82100804708484430006851
:1021700080B20449088000F4004000287FF4D2AE09
:1021800000BF30E704010020CC000020005C0040CC
:10219000E0000020E2000020005000402C01002060
:1021A000100100200B4A02EB8001D1F8001C01F461
:1021B000804171B102EB8001D1F8001C48F68F72AA
:1021C00011404CF280021143024B03EB8002C2F833
:1021D000001C7047005000400B4A02EB8001D1F810
:1021E000001C01F0400171B102EB8001D1F8001C2C
:1021F00048F68F72114048F2C0021143024B03EBC4
:102200008002C2F8001C704700500040084A02EBF0
:102210008001D1F8001C48F68F62114048F280021C
:102220001143034B03EB8002C2F8001C704700000F
:10223000005000401048006800F00200B8B10F489C
:1022400000880F49098A084400B20C4908800846F2
:1022500040880B49C989084400B2084948800846AB
:10226000808807498989084400B20449888002208F
:102270000149486070470000000002400002002051
:10228000E801002021B1026842F00102026004E08E
:1022900002684FF6FE731A400260704701684FF6FD
:1022A000FE72114001600021016041608160C160E7
:1022B0004B49884208D14A490839496841F00F0121
:1022C000474A083A51608AE045491431884208D1AA
:1022D00043490839496841F0F001414A083A5160E0
:1022E0007DE03F492831884208D13D490839496895
:1022F00041F470613A4A083A516070E038493C3123
:10230000884208D136490839496841F47041344A55
:10231000083A516063E032495031884208D130496F
:102320000839496841F470212D4A083A516056E055
:102330002B496431884208D129490839496841F458
:102340007001274A083A516049E0254978318842AE
:1023500008D123490839496841F07061204A083A98
:1023600051603CE01F49884206D1011F096841F0D5
:102370000F01021F116032E01A491431884208D15E
:102380001849091F096841F0F001164A121F11602F
:1023900025E014492831884208D11249091F0968EB
:1023A00041F470610F4A121F116018E00D493C3171
:1023B000884208D10B49091F096841F47041094A54
:1023C000121F11600BE007495031884207D10549BF
:1023D000091F096841F47021024A121F11607047F9
:1023E00008000240080402401AB103680B4303606E
:1023F00002E003688B430360704710B50022026857
:1024000047F6F0739A430C6A8B6823430C692343A5
:102410004C6923438C692343CC6923434C6A23438F
:102420008C6A23431A430260CB6843600B68836065
:102430004B68C36010BD00002DE9F04728480068D4
:1024400000F110052E8826480068077AD6B9042FB7
:1024500018D12448007801280FD1002122480068B3
:1024600080B2801C214A42F8101030202049088098
:1024700000BF00201B49087003E0072710201C49FB
:10248000088027E0AC88A64201D8042000E00220A2
:102490000746B44200D93446A0B2A96888478046AE
:1024A000002000F0A1FC8146A2B24946404603F05C
:1024B0008BF9A1B2002001F01DFF2888001B2880A5
:1024C0006888204468803020094908800002094952
:1024D000088000BF024909680F72BDE8F08700005C
:1024E000D0000020CA000020505C00400060004086
:1024F000E2000020E00000202DE9F04128480068BB
:1025000000F110042688A068C0B1BEB1A588B5420C
:1025100000D93546A8B2A168884707462088401BE5
:102520002080608828446080002000F03BFC8046CA
:10253000AAB24146384600F0BFFF00BF208850B124
:102540004FF44050174908800021084601F0D2FEA0
:102550003020154908802088A188884204DB0320A8
:102560000F490968087218E02088002804DD05205A
:102570000B490968087210E0208870B906200849E4
:102580000968087200210948006880B2801C084A66
:1025900042F81010302004490880BDE8F0810000A6
:1025A000D0000020E0000020E2000020505C00404D
:1025B000006000402DE9F84F9B48006845780027EF
:1025C000BA46062D1BD198480068007800F07F00BD
:1025D000002813D1944909688878012803D19349C8
:1025E0000968CF690AE0022803D1904909680F6A97
:1025F00004E0032802D18D4909684F6A94E0002D58
:1026000064D189480068408800285FD18648006806
:10261000C08802285AD1844800680079002855D122
:1026200081480068007800F07F0028B97E48006883
:10263000808808B97E4F77E07B480068007800F01A
:102640007F00012810D178490968487977490968DD
:102650008A6900219047002866D173480068807A13
:10266000002861D0724F5FE06F480068007800F08A
:102670007F00022858D16C480068407900F00F06AE
:1026800069480068407900F070096748006840793F
:1026900000F0800038B1674901EB8600D0F8000CEB
:1026A00000F0300806E0634901EB8600D0F8000C2A
:1026B00000F4405860480078B04235D9B9F1000FB5
:1026C00032D1B8F1000F2FD0594F2DE0082D07D18E
:1026D00055480068007800F07F0028BB574F23E082
:1026E0000A2D21D150480068007800F07F000128B1
:1026F0001AD14D480068807AB0B14B4800684088D4
:1027000090B949480068007970B947480068C088A6
:10271000012809D1444909684879444909688A6906
:102720000021904700B9464F57B13F480068A0F8D4
:1027300012A03D48006887610020B84700240FE0E0
:10274000394A12685078394A126811698847044634
:10275000032C05D10920344909680872BDE8F88FB7
:1027600031480068008A4FF6FF71884204D1092081
:102770002D4909680872F1E7022C03D02A48006845
:10278000008A20B90820284909680872E6E7264827
:102790000068007800F08000E0B323480068C0883B
:1027A000009021480068008A0099884204D91E4997
:1027B00000980968088223E01B480068008A1A49CB
:1027C0000968C98888421BDA17480068008A1749D7
:1027D000096891F82C10884203DA00201949087022
:1027E0000EE011480068008A1049096891F82C1021
:1027F00090FBF1F201FB120010B9012011490870A1
:102800000A48006890F82C10074800688182FFF79A
:1028100013FE07E0FFE7032003490968087200037D
:102820000949088000BF99E7D0000020D4000020AB
:10283000454700080050004054010020C9460008E8
:1028400019470008CA000020E0000020704700007F
:1028500070B52248B0F802022049B1F8001288424F
:1028600000D170BD1D48B0F802021C49B1F8001239
:10287000884208DA1948B0F800021849B1F8021283
:10288000401A84B205E01548B0F80202C0F50070A5
:1028900084B2402C00DD40241048B0F80252B0F859
:1028A000020220440D49A1F802020846B0F80202D3
:1028B000B0F5007F02DB0020A1F8020207494819A9
:1028C0002246C02102F080FF2146012001F012FDC6
:1028D000012001F03DFD00BFC3E7000064160020A9
:1028E00010B50649032002F0F1FE84B2E1B20348BC
:1028F00002F004FF032001F0D3FC10BDF819002002
:1029000030B589B02848006800F48070002849D0AC
:1029100025481438006800F48070002842D04FF435
:10292000807021490860072000F0E6FB044621463C
:10293000272000F09FFC04F0100020B1FF21E120CF
:1029400000F098FC2DE004F04000D8B1602000F0C9
:10295000D3FB0546202D14DA2A4601A9612000F098
:10296000A7FBFF21E22000F085FC01A800F078F829
:1029700038B900200D49088000F074FF00200C4990
:1029800008700EE004F0200058B1FF21E12000F0B3
:1029900071FC00200549088001200549087000F0FD
:1029A00061FF00BF09B030BD1404014002000020E7
:1029B000280000200149086070470000140401400D
:1029C000002123498279002A3AD00A461268036816
:1029D0009A430B461A600A1D126803689A430B1D3E
:1029E0001A60027911440A6803681A430A60184A97
:1029F0000832126803689A43154B08331A601A1D8F
:102A0000126803689A43124B0C331A604279102AF9
:102A10000ED11A1F126803681A430D4B08331A604F
:102A20001A1D126803681A43094B0C331A600DE033
:102A30000749427911440A6803681A430A6005E0AD
:102A4000027911440A6803689A430A6070470000DB
:102A5000000401400320014908707047DC01002098
:102A600010B504460C482168016061684160082186
:102A700003F0EAFF08490988884204D0002006498B
:102A80000880012010BD0020034908800846807896
:102A9000024908700020F5E7200000200000002017
:102AA00030B5044604254FF4302000F06FF8054699
:102AB000042D17D10C48006940F002000A49086152
:102AC00008464461006940F0400008614FF430203E
:102AD00000F05CF805460448006941F6FD710840C5
:102AE00001490861284630BD0020024004200B49FE
:102AF000C96801F0010109B101200EE00749C96868
:102B000001F0040109B1022007E00449C96801F09D
:102B1000100109B1032000E00420704700200240AA
:102B20000348006940F080000149086170470000D7
:102B30000020024070B504460D460426F00200F065
:102B400025F80646042E11D10948006940F001001D
:102B5000074908612580F00200F018F8064604488D
:102B6000006941F6FE71084001490861304670BDB8
:102B7000002002400248034948600348486070470B
:102B80002301674500200240AB89EFCD00B5024626
:102B90000423FFF7ABFF034603E0FFF7A7FF03465D
:102BA000521E012B01D1002AF7D102B90523184684
:102BB00000BD000030B500228B071C0F0F2303FA65
:102BC00004F20B4B8C1053F824309343084C8D10B7
:102BD00044F8253023468C1053F824308C07240FFA
:102BE00000FA04F42343024C8D1044F8253030BD24
:102BF000080001402DE9F041024600250026002092
:102C000000230024002791F803C00CF00F0591F871
:102C100003C00CF0100CBCF1000F03D091F802C0FF
:102C20004CEA050591F800C0BCF1000F31D01468E2
:102C300000202BE04FF0010C0CFA00F3B1F800C0BB
:102C40000CEA03069E4220D183004FF00F0C0CFAD1
:102C500003F7BC4305FA03FC4CEA040491F803C0F3
:102C6000BCF1280F06D14FF0010C0CFA00FCC2F8A1
:102C700014C00AE091F803C0BCF1480F05D14FF031
:102C8000010C0CFA00FCC2F810C0401C0828D1D37B
:102C90001460B1F800C0BCF1FF0F34DD54680020AF
:102CA0002EE000F1080C4FF0010808FA0CF3B1F81F
:102CB00000C00CEA03069E4221D183004FF00F0CA6
:102CC0000CFA03F7BC4305FA03FC4CEA040491F840
:102CD00003C0BCF1280F05D100F1080C08FA0CF86C
:102CE000C2F8148091F803C0BCF1480F07D100F17D
:102CF000080C4FF0010808FA0CF8C2F81080401CCC
:102D00000828CED35460BDE8F0810000F0B50A4633
:102D1000002300240021002500F00046B6F1004FFA
:102D200002D11D4EF16901E01B4E7168C0F30345ED
:102D300083B200F44016B6F5401F08D121F070614F
:102D4000154E766826F07066134F7E6012E000F430
:102D50008016B6F5801F06D1032606FA05F4A143B6
:102D600041F0706106E0460D360103FA06F6B14304
:102D700041F0706122B1460D360103FA06F6314387
:102D800000F00046B6F1004F02D1034EF16101E0C0
:102D9000014E7160F0BD00000000014041617047CC
:102DA0000161704701460548006880B200EBC10030
:102DB000001D034A32F8100080B27047505C00409A
:102DC0000060004001460648006880B200EBC10088
:102DD000801D044A32F81000C0F30900704700005B
:102DE000505C00400060004001460548006880B229
:102DF00000EBC100034A32F8100080B270470000B7
:102E0000505C0040006000400148006870470000CE
:102E1000B000002070B50A480468001D0568001D58
:102E20000668344454B108220649204600F068F888
:102E3000042204491031284600F062F870BD0000F9
:102E4000E8F7FF1FE800002000BFFEE74CF6CC408B
:102E50000149086070470000003000404AF6AA208F
:102E60000149086070470000003000400149486097
:102E70007047000000300040014988607047000042
:102E800000300040014908607047000000300040F9
:102E900010B518480068047A022C01D0042C05D122
:102EA000FFF7CAFA13480068047A1CE0062C19D10F
:102EB00010480068407805280ED10E480068007858
:102EC00000F07F0040B90B490968C87801F068F943
:102ED00009490968086A804708490968886880477D
:102EE000082400E00824034909680C7200F026FB5E
:102EF00010BD0000D0000020DC000020D400002025
:102F000030B50B46002100BF16E00A24B4EB107F59
:102F100005D9302404EB107403F8114005E0412476
:102F200004EB10740A3C03F81140000100254C002A
:102F3000641C1D554C1CE1B29142E6DB30BD0146DC
:102F4000CA1701EB92729210A1EB820292B964202F
:102F500091FBF0F200FB121050B94FF4C87091FBD6
:102F6000F0F200FB121008B9012070470020FCE7C6
:102F70000120FAE70020F8E708B50121102000F051
:102F80005DFB4FF40050ADF8000010208DF80300F9
:102F900001208DF8020069460448FFF72BFE4FF42C
:102FA00000510248FFF7FCFE08BD00000010014080
:102FB0000548817A19B10521044A117002E0012106
:102FC000024A11707047000048160020DC01002002
:102FD00000BFFEE7704770471FB501210C2000F0CD
:102FE0002DFB4FF48070ADF80C0048208DF80F00D9
:102FF00003208DF80E0003A92B48FFF7FBFD4FF4CB
:103000000070ADF80C0010208DF80F0003208DF833
:103010000E0003A92448FFF7EDFD4FF40040ADF882
:103020000C0010208DF80F0003208DF80E0003A96E
:103030001E48FFF7DFFD0121084600F0FFFA0821D6
:103040000120FFF7B7FD4FF48070019000208DF84C
:1030500008000C208DF8090001208DF80A0001A855
:10306000FFF7AEFC17208DF8000002208DF801005C
:103070008DF8020001208DF80300684600F016F973
:1030800000F014FF08481430006840F4007006494E
:103090001431086005481030006840F400400349CE
:1030A000103108601FBD0000000C01400008014005
:1030B0002DE9F04104460E4617460E48006840F4DC
:1030C00000400C490860204600F046FF002505E05E
:1030D000FF2000F041FF7055681CC5B2BD42F7DB10
:1030E0000448001F006840F400400249091F0860BE
:1030F000BDE8F0811408014070B504460B48006833
:1031000040F4004009490860204600F025FFFF20F8
:1031100000F022FF05460548001F006840F400400B
:103120000249091F0860284670BD000014080140CC
:1031300070B505460620FFF7DFFF20F0070435B124
:10314000012D06D0022D07D0032D0BD107E000BFC3
:1031500009E044F0020406E044F0040403E044F013
:10316000060400E000BF00BF2146062000F082F800
:1031700070BD70B504460E461546052D01DD0520CF
:1031800000E028460546052C01DD052000E020462C
:10319000044604F10A01C8B22A46314600F046F856
:1031A00070BD70B5054600240620FFF7A5FF044654
:1031B00024F0280415B944F0200408E0012D02D1C0
:1031C00024F0280403E0022D01D144F00804214634
:1031D000062000F04FF870BD70B505460C46052C72
:1031E00001DD052000E02046044622462946102045
:1031F00000F01CF870BD000070B504460D460A488A
:10320000006840F40070084908602A462146A02062
:1032100000F00CF80448001F006840F400700249F8
:10322000091F0860FF2070BD140C01402DE9F0411A
:1032300005460E4617460E48006840F400400C490B
:10324000086045F0200000F087FE002404E0305DB7
:1032500000F082FE601CC4B2BC42F8DB0448001FD0
:10326000006840F400400249091F0860BDE8F08191
:103270001408014070B504460D460B48006840F440
:1032800000400949086044F0200000F065FE28462F
:1032900000F062FE0448001F006840F4004002494C
:1032A000091F086070BD00001408014070B50021BE
:1032B00000230F22C47804B3154C246804F4E0649E
:1032C000C4F5E064210AC1F10403CA40447804FA59
:1032D00003F184781440214309010E4C0678A1556E
:1032E000047804F01F050124AC4005786D11AD0091
:1032F00005F1E025C5F8004109E0047804F01F0558
:103300000124AC40044D0678761145F8264070BD86
:103310000CED00E000E400E080E100E00249014340
:10332000024A1160704700000000FA050CED00E051
:1033300070B502264748006844784648006800781F
:1033400000F07F00002844D1092C03D101F07AFA63
:1033500006465FE0052C14D13E480068C0787F28FF
:103360000BDC3C480068807838B93A4800688088AF
:1033700018B938480068807A08B1082565E0002649
:1033800048E0032C0ED133480068C078012807D1EB
:1033900030480068808818B901F078FA064639E0AC
:1033A000022637E0012C35D12A480068C078012870
:1033B0000DD128480068808848B926480068407ABE
:1033C00000F0200018B101F0C9F8064622E00226FC
:1033D00020E020480068007800F07F00012805D137
:1033E0000B2C17D101F0CEFA064613E019480068FD
:1033F000007800F07F0002280BD1012C03D101F0EE
:10340000ADF8064606E0032C04D101F053FA064657
:1034100000E002264EB1E0B20F4A126851698847B7
:103420000646032E01D109250FE00EB108250CE058
:10343000062500210948006880B2801C084A42F82D
:10344000101030200749088000BF024909680D723A
:1034500070BD0000D0000020D4000020505C00406F
:1034600000600040E200002010B511480068047AB6
:10347000022C01D0042C01D1082412E0032C01D02D
:10348000052C05D1FFF738F809480068047A08E0F0
:10349000072C05D107490968C8688047082400E05F
:1034A0000824034909680C7200F048F810BD0000B8
:1034B000D0000020D4000020F0B5561C7510074E37
:1034C00006EB41042B4605E034F8047B20F8017B31
:1034D000401C5B1E002BF7D1F0BD000000600040D7
:1034E000014908627047000000000E420A48006867
:1034F00040F00400084908600846006840F00200F7
:1035000008600648006840F004000449086000BFF5
:1035100000BF30BF704700000070004010ED00E0B9
:1035200001460020034A52680A400AB1012000E027
:1035300000207047007000407047000010B50D4833
:1035400090F82C10002000F065FE0B480068007A0F
:10355000082805D140020949088010200849088040
:1035600005480068007A092801D1012010BD00201B
:10357000FCE7000058010020D0000020E0000020FF
:10358000E200002010B5012001F02DFF01240B48BE
:10359000046000200A49088008460088074908603E
:1035A0000020091D08604FF4E050054908800846D6
:1035B000008802490860002010BD0000405C004007
:1035C000DA00002001460020034A506820F4404001
:1035D00008435060704700000010024029B1064ABD
:1035E00052690243044B5A6104E0034A5269824320
:1035F000014B5A61704700000010024029B1064A91
:10360000D2690243044BDA6104E0034AD26982437F
:10361000014BDA61704700000010024029B1064AF0
:1036200012690243044B1A6104E0034A126982439F
:10363000014B1A61704700000010024029B1064A90
:1036400092690243044B9A6104E0034A92698243FF
:10365000014B9A61704700000010024029B1064AF0
:10366000D2680243044BDA6004E0034AD268824322
:10367000014BDA6070470000001002400149086009
:10368000704700004004424230B50021002200246F
:1036900000232D4D6D6805F00C0121B1042905D0E2
:1036A000082923D105E0294D056022E0274D05605A
:1036B0001FE0254D6D6805F47012234D6D6805F40B
:1036C0008034022505EB92421CB9214D554305601B
:1036D0000BE01D4D6D6805F400351DB11C4D5543C3
:1036E000056002E0194D5543056002E0174D056085
:1036F00000BF00BF144D6D6805F0F0010909154DBC
:103700006B5C0568DD4045600F4D6D6805F4E06158
:10371000090A104D6B5C4568DD4085600A4D6D6897
:1037200005F46051C90A0B4D6B5C4568DD40C5600E
:10373000054D6D6805F44041890B074D6B5CC5680C
:10374000B5FBF3F5056130BD0010024000127A00B0
:1037500000093D00B4000020C400002010B501465F
:103760000022002300204A11012A02D1094C2368BB
:1037700006E0022A02D1074C236A01E0054C636A85
:1037800001F01F02012494401C400CB1012000E014
:10379000002010BD0010024000210B4A11700A4A9F
:1037A000203A82F82010012802D0042808D103E032
:1037B0000121054A117004E00521034A117000E05F
:1037C00000BF00BF704700002010024001490860A0
:1037D000704700003C0442420249096A0143014A21
:1037E00011627047001002400149086070470000F4
:1037F000D800424210B51848006840F400701649DD
:10380000086020211120FFF735FD01210846FFF750
:1038100031FD01210220FFF72DFD03210846FFF7AE
:1038200029FDF0210420FFF725FD502000F052F87B
:103830000320FFF77DFC0220FFF7B3FC05210748BA
:10384000FFF7CAFC052206490020FFF792FC0C2175
:103850000020FFF70FFD10BD140C0140D2780008C6
:10386000D778000870B5054600241948006840F470
:103870000070174908600020FFF73EFC044645B978
:1038800024F0010444F0020421460020FFF7F2FC7A
:1038900012E0012D08D144F0010444F00204214655
:1038A0000020FFF7E7FC07E0022D05D124F0020419
:1038B00021460020FFF7DEFC0548001F006840F4A9
:1038C00000700349091F0860822003F00FF970BDE2
:1038D000140C014010B5044604F07F010520FFF7E9
:1038E000C9FC10BD10B5044601214FF0C050FFF7D0
:1038F00085FE0120FFF7F4FD204600F0FDF900F001
:1039000027FA002010BD0000024909888143014ABE
:1039100011807047042800400348008840F01000E0
:1039200001490880704700000428004003480088CF
:103930004FF6EF71084001490880704704280040A5
:1039400070B50024002500F07FF83B49C8600846A8
:10395000C0683A49B0FBF1F439480088A0423CD035
:1039600037490C8040F2B27510E02846FFF7E7FABD
:1039700040B1B4F5B77F02D3A4F5B77404E0681C76
:1039800085B206E0A4F26D14681C85B2B4F5B67F6A
:10399000EBD800BF28488580002516E02649888896
:1039A000FFF7CDFA30B1012D04D11D2C01D31D3C00
:1039B00009E00CE02348405DA04203D82148405D67
:1039C000241A00E003E0681C85B21C2CE6D200BF7C
:1039D000681C19498871601CC8711748C06817496C
:1039E000B0FBF1F201FB12044FF46160B4FBF0F0A4
:1039F000114908704FF46160B4FBF0F100FB114015
:103A00003C21B0FBF1F00C4948704FF46160B4FB0D
:103A1000F0F100FB11403C21B0FBF1F201FB120080
:103A2000054988700B46DA799979988800F028F86A
:103A300001490872002070BD20060020805101005D
:103A40002A000020E8780008002103480188001FB0
:103A5000008841EA004070471C28004001460020D1
:103A6000064A12880A40D0B2044A121F12880A403D
:103A700012B108B1012000E0002070470428004086
:103A8000F0B503460C461546642093FBF0F0C6B231
:103A9000642093FBF0F700FB1730C1B2132E02DD58
:103AA00001F16400C1B20846CF1701EB977701EB33
:103AB000A707BAB2072092FBF0F700FB172082B2EB
:103AC0005719601EDFF82CC01CF80000384482B281
:103AD000CF1701EB9777BF10A1EB87071FB9032C16
:103AE00001DA501E82B2072092FBF0F700FB17208C
:103AF000C0B2F0BDDC78000810B50120FFF7AEFFC2
:103B000020B10120FFF700FFFFF71AFF0220FFF7A7
:103B1000A5FF10B10220FFF7F7FE00F019F910BD64
:103B200029B1064A12880243044B1A8004E0034A72
:103B300012888243014B1A80704700000028004021
:103B40001CB5002401214FF0C050FFF757FD0120A4
:103B5000FFF7C6FC0420FEF7BDF945F2500188428C
:103B600043D0FEF7AEF90120FFF716FE04E0601C1B
:103B7000C4B20A2002F0A8FF4120FFF7EFFD08B908
:103B8000FA2CF4DBFA2C01DB01201CBD4FF4807011
:103B9000FFF722FE0120FFF719FE00F0D9F800F030
:103BA000E1F801210846FFF7BBFF01210220FFF7E2
:103BB000B7FF00F0CDF8FFF7AFFE47F6FF7000F05B
:103BC000B7F800F0C5F80320009003460246012133
:103BD000019040F2E37000F02BF8FFF7A7FE45F2EA
:103BE00050010420FEF784F90BE000F0BBF801213E
:103BF0000846FFF795FF01210220FFF791FF00F033
:103C0000A7F800F004F8FFF79BFE0020BDE708B519
:103C100003208DF8000000208DF801008DF80200CF
:103C200001208DF803006846FFF740FB08BD000047
:103C30002DE9F05F06460F4690469946DDE90AAB4E
:103C4000002440F2B270864203DB40F63300864225
:103C500002DD0120BDE8F09F40F2B2750AE028467F
:103C6000FFF76DF910B12048044401E01F480444F7
:103C7000681C85B2B542F2DB781EC7B2002510E0A1
:103C80001B48405D40F2A321484304EBC01430467A
:103C9000FFF755F918B1012D01D116480444681CED
:103CA00085B2BD42ECDBA8F1010040F2A3214843FC
:103CB00004EBC014C9EB4910C0EB092004EB00145D
:103CC000CAEB0A1004EB80045C4401214FF0C050A1
:103CD000FFF794FC0120FFF703FC204600F01AF8E0
:103CE00000F036F80020B5E70085E2018033E101FD
:103CF000E87800088051010000B50246FFF70CFE8D
:103D0000100C03490880091D0A80FFF70FFE00BD53
:103D10002028004000B50246FFF7FEFD100C0349C5
:103D20000880091D0A80FFF701FE00BD1828004029
:103D300000B50246FFF7F0FDC2F3034003490880D7
:103D4000091D0A80FFF7F2FD00BD000008280040B1
:103D500000BF0348008800F020000028F9D0704719
:103D600004280040074800884FF6F77108400549CD
:103D7000088000BF0348008800F008000028F9D040
:103D8000704700000428004070B50546072D01D09B
:103D90002E4805702D48007808284ED2DFE800F044
:103DA00004111A202B384E4F2948006828B900F01A
:103DB00053F806202549087002E0052023490870C1
:103DC00041E000F049F80420204908700120204912
:103DD000086038E002201D4948700320087032E076
:103DE0001A484078401E194948700846407808B97A
:103DF0000420087027E01748006884B244F01004DB
:103E0000144804600520114908700A2048701AE01F
:103E10000E484078401E0D4948700846407858B911
:103E20000C48006884B224F010040A48046006209C
:103E3000087000200649086005E000BF00BF0620AA
:103E40000249087000BF00BF70BD0000DE01002005
:103E5000E0010020405C004010B50748006884B2D3
:103E600024F0040404480460FFF7A2F84FF43F4034
:103E70000149086010BD0000405C004010B50948D1
:103E8000007805280CD1084801680068401C064AE3
:103E90001060052904D1002011460860FEF7D8FC07
:103EA00010BD0000DC0100200001002000B587B03B
:103EB00001210820FFF7C2FB01210803FFF7BEFB29
:103EC00001210846FFF7BAFB01212048FEF71EFF3B
:103ED00001210846FEF71AFF3820ADF81800182017
:103EE0008DF81B0003208DF81A0006A91848FEF76C
:103EF00081FE38211648FEF753FF164800F062F89D
:103F00000020ADF804004FF48270ADF806000020E8
:103F1000ADF808000220ADF80A000120ADF80C0051
:103F20004002ADF80E001020ADF810000020ADF8F2
:103F300012000720ADF8140001A9064800F06EF841
:103F40000121044800F032F807B000BD0002300043
:103F5000000C0140003001400246002107E0481CEF
:103F600081B24FF6FE70814201DB002070470E489F
:103F7000008900F002000028F1D00B488281002166
:103F800007E0481C81B24FF6FE70814201DB002041
:103F9000ECE70548008900F001000028F1D0024854
:103FA0008089C0B2E2E700000030014021B1028800
:103FB00042F04002028004E002884FF6BF731A40CC
:103FC0000280704710B504461148844208D101218F
:103FD0008014FFF743FB0021A014FFF73FFB16E01E
:103FE0000C48844208D101210014FFF717FB00217F
:103FF0002014FFF713FB0AE00748844207D1012190
:10400000C013FFF70BFB0021E013FFF707FB10BD08
:104010000030014000380040003C004010B5002254
:10402000028802F441520B884C8823438C88234336
:10403000CC8823430C8923434C8923438C89234315
:10404000CC8923431A430280838B4FF2FF742340B1
:1040500083830B8A038210BD30B503460C46154698
:10406000002207E0184600F008F824F812009B1C14
:10407000501C82B2AA42F5DB30BD01460888704769
:104080002DE9F05F80468A461746B8F1006F02D3EB
:104090003348804501D3BDE8F09FFEF76BFDA8F1E2
:1040A000006B4FEA9B25CBF34809C9F50074A74282
:1040B00000DC3C464DE04FF0006101EB85208A14A6
:1040C0002849FFF7C9FF00260BE009EB0600254948
:1040D00031F810004FF6FF71884200D003E0701CE9
:1040E00086B2A642F1DB00BFA6421BDA4FF00061A8
:1040F00001EB8520FEF7D4FC002608E03AF8160014
:1041000006EB0901174A22F81100701C86B2A6427C
:10411000F4DB4FF0006101EB85208A14114900F0B7
:1041200023F804E022465146404600F01DF8A7421D
:1041300000D10FE06D1C4FF000090AEB440AA044C7
:10414000381B87B2B7F5007F02DD4FF4007400E042
:104150003C46B0E700BFFEF7E3FC00BF9BE7000072
:1041600000000108200200202DE9F04105460E461E
:104170001746002407E036F814102846FEF7DAFC4C
:10418000AD1C601C84B2BC42F5DBBDE8F081704719
:104190004FF6F8710140014A11607047505C0040D1
:1041A00030B501460F4B1A78002014E003060E4C80
:1041B00004EB9353D3F8003C48F68F74234048F245
:1041C00080042343C4B223430406074D05EB9454F3
:1041D000C4F8003C401C9042E8D341F08003034CFB
:1041E000236030BD54010020005000404C5C004072
:1041F00010B54A105300054A126892B202EBC00291
:10420000121D034C44F8123010BD0000505C0040F9
:104210000060004010B502460F48006880B200EB15
:10422000C200801D0D4C04EB40033E290BDD4811FC
:1042300001F01F040CB9441EA0B24FF4004444EA3C
:1042400080241C6007E0481001F001040CB1441CFC
:10425000A0B284021C6010BD505C004000600040B1
:1042600030B50E4C04EB8003D3F8003C4BF68F7452
:1042700003EA040201F480530BB182F4805201F48A
:1042800000530BB182F4005242F4004343F0800328
:10429000024D05EB8004C4F8003C30BD00500040E6
:1042A00010B50B4B03EB8002D2F8002C4BF68F734A
:1042B00002EA030181F4805181F4005141F400428B
:1042C00042F08002024C04EB8003C3F8002C10BDC6
:1042D0000050004010B54A105200044B1B689BB2BE
:1042E00003EBC003024C44F8132010BD505C0040A7
:1042F00000600040044A126892B202EBC002921CB5
:10430000024B43F812107047505C004000600040C0
:1043100030B50E4C04EB8003D3F8003C48F6BF7474
:1043200003EA040201F010030BB182F0100201F065
:1043300020030BB182F0200242F4004343F08003DB
:10434000024D05EB8004C4F8003C30BD0050004035
:1043500010B50B4B03EB8002D2F8002C48F6BF736C
:1043600002EA030181F0100181F0200141F40042D2
:1043700042F08002024C04EB8003C3F8002C10BD15
:104380000050004010B5074B03EB8002D2F8002C20
:1043900048F68F131A400A43024C04EB8003C3F81B
:1043A000002C10BD0050004010B500F001F810BD09
:1043B0000CB50020019000903348006840F4803034
:1043C0003149086000BF3048006800F400300090B8
:1043D0000198401C0190009818B90198B0F5A06FA1
:1043E000F1D12948006800F4003010B1012000909C
:1043F00001E0002000900098012843D12348006884
:1044000040F01000214908600846006820F00300D1
:1044100008600846006840F0020008601A484068DA
:10442000194948600846406848600846406840F4BA
:10443000806048600846406820F47C104860084668
:10444000406840F4E81048600846006840F080701A
:10445000086000BF0C48006800F000700028F9D028
:104460000948406820F00300074948600846406852
:1044700040F00200486000BF0348406800F00C00B4
:104480000828F9D10CBD00000010024000200240B5
:1044900010B50020FFF7A8F90121C805FFF7AEF815
:1044A00010BD000038B501242948006880B2001D05
:1044B000284931F8100080B201EB400000902648F6
:1044C0000068007A092832D00098007822490968EB
:1044D00008700098401C0090009800781E490968F8
:1044E00048700098401C0090009800EB4400009039
:1044F000009931F8020B0091FDF70AFD1649096891
:104500004880009800EB44000090009931F8020BBD
:104510000091FDF7FDFC104909688880009800EBC8
:1045200044000090009800880B490968C880012069
:1045300009490968087208480068C08810B9FEF780
:10454000F7FE01E0FEF736F8FEF7F8FF38BD000091
:10455000505C004000600040D00000202DE9F04792
:1045600054480068007800F07F08B8F1000F0AD1C5
:1045700050480068407A00F0DF004E4909684872F0
:104580000020BDE8F087B8F1020F7CD149480068EF
:10459000408818B947480068007908B10220F0E760
:1045A000DFF8149143480068477927F080052C46CE
:1045B00040480068407900F0800038B13F4901EB85
:1045C0008400D0F8000C00F0300606E03B4901EB17
:1045D0008400D0F8000C00F4405699F80000A8427E
:1045E00004D91EB133480068807A08B90220C8E7B0
:1045F00007F0800080B1314901EB8400D0F8000C55
:1046000000F0300010284BD1E0B2FDF7E5FDE0B23C
:104610003021FFF77DFE43E0284901EB8400D0F80C
:10462000000C00F44050B0F5805F39D1E4B9244A61
:1046300092F82C10E0B2FFF7EDFD204A02EB840166
:10464000D1F8001C4BF68F7201EA020080F4805012
:1046500080F4005040F4004141F08001174B03EB1F
:104660008402C2F8001C1BE0E0B2FDF79BFD134A78
:1046700002EB8401D1F8001C4BF68F7201EA0200B4
:1046800080F4805000E011E080F4005040F40041DC
:1046900041F08001094B03EB8402C2F8001C00BF0B
:1046A000084909684869804700206AE700BF02207E
:1046B00067E70000D00000205401002000500040B7
:1046C00058010020DC00002010B504462CB9012060
:1046D000064909680882002010BD05490968086874
:1046E0008047024800680A30F6E70000D00000204A
:1046F000DC00002010B5024606480068438A32B943
:104700008888C01A034C24682082002010BD0868E5
:104710001844FBE7D000002010B504462CB9012056
:10472000064909680882002010BD054909688868A3
:104730008047024800680C30F6E70000D0000020F7
:10474000DC00002010B504462CB902203949096864
:104750000882002010BD00203749088035480068D5
:10476000007800F07F0018BB32490968487A00F0F1
:10477000200131B13049097841F002012E4A11700F
:1047800005E02D49097801F0FD012B4A117000F078
:10479000400131B12849097841F00101264A1170E0
:1047A00005E02549097801F0FE01234A11703AE03D
:1047B00020480068007800F07F00012801D11E48E1
:1047C000C8E71C480068007800F07F00022828D164
:1047D000184A1268517901F00F0001F080027AB195
:1047E000164B03EB8002D2F8002C02F03002102AA4
:1047F00016D1114A127842F001020F4B1A700FE0E5
:104800000E4B03EB8002D2F8002C02F44052B2F5BA
:10481000805F05D1084A127842F00102064B1A70F7
:1048200001E0002096E706490968086980470248C8
:1048300090E70000D0000020C80000200050004099
:10484000DC00002010B50E480068C0780D4949789A
:10485000884213DC0A480068807878B90848006804
:10486000808858B906480068C07805490968887288
:104870000549096848688047002010BD0220FCE710
:10488000D000002054010020DC00002010B50748B3
:104890000068407A40F020000449096848720449E1
:1048A0000968C8698047002010BD0000D0000020C2
:1048B000DC0000202DE9F0412E480068467926F002
:1048C00080073C462B480068407900F0800038B1F2
:1048D000294901EB8400D0F8000C00F0300506E017
:1048E000254901EB8400D0F8000C00F44055234822
:1048F0000078A04208D91F480068408820B91DB13F
:104900001C480068807A10B90220BDE8F08106F0EA
:104910008000A0B1184A02EB8401D1F8001C48F6CF
:10492000BF7201EA020080F0100040F4004141F043
:104930008001114B03EB8402C2F8001C14E00E4A04
:1049400002EB8401D1F8001C4BF68F7201EA0200E1
:1049500080F4805040F4004141F08001064B03EBAD
:104960008402C2F8001C00BF0549096888698047B5
:104970000020CAE7D0000020005000405401002071
:10498000DC00002010B5174B1B68D978154B1B684D
:104990005879154B1B689A6990470446114800687E
:1049A000807AE8B13CB90F480068007918B90D4821
:1049B0000068807808B1022010BD8CB90B490968E5
:1049C000C868804707480068407906490968C87286
:1049D00004480068C0780349096808730020EBE7C1
:1049E0000220E9E7D0000020D4000020DC000020F5
:1049F00038B50025002000902148006884B200BF2F
:104A000009E0204901EB8500D0F8000C80B21E4976
:104A100041F825006D1C082DF3D344F48064184838
:104A2000046044F00104046024F00104046000BF49
:104A30001348001D006800F480600028F8D04FF68D
:104A4000FF300F49091D0860002509E00E4850F8A5
:104A5000250080B20B4A02EB8501C1F8000C6D1CE9
:104A6000082DF3D344F0080405480460006884B2BC
:104A700044F0040402480460FDF7ECFF38BD000078
:104A8000405C004000500040381A0020042808D143
:104A90004FF0E021096941F004014FF0E02211617B
:104AA00007E04FF0E021096921F004014FF0E02216
:104AB0001161704710B504480068401C0249086045
:104AC00000F03CF810BD0000B000002010B501213E
:104AD0000807FEF793FDFEF709FD10BD10B513485A
:104AE000006840F00100114908600846406810491C
:104AF00008400E494860084600680E4908400B49C6
:104B000008600846006820F4802008600846406875
:104B100020F4FE0048604FF41F008860FFF744FC5B
:104B20004FF000600449086010BD00000010024012
:104B30000000FFF8FFFFF6FE08ED00E010B502F000
:104B4000E5FA10BD00B58DB001210420FEF776FD19
:104B50004FF48070ADF8040018208DF80700032092
:104B60008DF8060001A93348FEF744F84FF4807130
:104B70003048FEF713F90121C802FEF75FFD2E4809
:104B800000F0F0F82C4800F0EAF94720ADF82800D2
:104B90000020ADF82E00ADF82A0044F62060ADF8F4
:104BA0002C0000208DF830000AA9234800F03EFABE
:104BB00006A800F030FA6020ADF818000120ADF82A
:104BC0001A000020ADF81C00ADF81E00ADF8200062
:104BD000ADF8240006A9184800F0C8F94FF40060A9
:104BE000ADF808004010ADF80A000020ADF80C0048
:104BF000ADF80E00ADF810004FF40050ADF8120003
:104C00000020ADF8140002A90B4800F07FF808213D
:104C1000094800F0F7F90121074800F06BF801217D
:104C2000054800F083F80021034800F08BF80DB030
:104C300000BD000000080140002C0140B0F57A7F63
:104C400001DD4FF47A7000F57A71014A11807047E6
:104C5000342C014010B50C48008800F0010090B1E0
:104C60000948001F008800F0010060B14FF6FE7097
:104C7000054908800548007828B900F097FD2021F3
:104C80000348FEF7B9FA10BD1004004028000020C8
:104C9000180000201FB501210220FEF7AFFC3220D2
:104CA000ADF8080041F61F40ADF804000020ADF853
:104CB0000A00ADF8060001A90D4800F0B7F901227D
:104CC00011460B4800F042F91D208DF8000002202B
:104CD0008DF8010001208DF802008DF80300684670
:104CE000FEF7E4FA0121024800F020F81FBD0000A1
:104CF0000004004021B1028842F08002028004E0FA
:104D000002884FF67F731A40028070470A884B88EA
:104D10001A438B881A43CB881A430B891A434B8951
:104D20001A438B891A43A0F84420704721B10288A6
:104D300042F00102028004E002884FF6FE731A403E
:104D40000280704731B1B0F8442042F40042A0F82C
:104D5000442005E0B0F84420C2F30E02A0F844203D
:104D60007047000010B504466848844208D101210C
:104D7000C014FEF773FC0021E014FEF76FFCC4E0E2
:104D8000B4F1804F08D101210846FEF747FC00210D
:104D90000120FEF743FCB8E05D48844208D10121C0
:104DA0000220FEF73BFC00210220FEF737FCACE0BE
:104DB0005848844208D101210420FEF72FFC00212D
:104DC0000420FEF72BFCA0E05348844208D10121C7
:104DD0000820FEF723FC00210820FEF71FFC94E0CA
:104DE0004E48844208D101211020FEF717FC002113
:104DF0001020FEF713FC88E04948844208D10121C5
:104E00002020FEF70BFC00212020FEF707FC7CE0B1
:104E10004448844208D101214014FEF71FFC0021C0
:104E20006014FEF71BFC70E03F48844209D1012169
:104E3000C804FEF713FC00214FF40020FEF70EFC1F
:104E400063E03A48844209D101210805FEF706FCD7
:104E500000214FF48010FEF701FC56E034488442F4
:104E600009D101214805FEF7F9FB00214FF400109C
:104E7000FEF7F4FB49E02F48844208D1012140208D
:104E8000FEF7CCFB00214020FEF7C8FB3DE02A489E
:104E9000844208D101218020FEF7C0FB0021802040
:104EA000FEF7BCFB31E02548844208D10121801582
:104EB000FEF7B4FB0021A015FEF7B0FB25E020486B
:104EC000844209D101210804FEF7C8FB00214FF4F8
:104ED0008030FEF7C3FB18E01A48844209D1012153
:104EE0004804FEF7BBFB00214FF40030FEF7B6FB91
:104EF0000BE01548844208D101218804FEF7AEFB7F
:104F000000214FF48020FEF7A9FB10BD002C0140CA
:104F10000004004000080040000C00400010004069
:104F20000014004000340140004C0140005001409A
:104F30000054014000180040001C004000200040C8
:104F40000040014000440140004801401AB18389FB
:104F50000B43838102E083898B43838170470189FE
:104F60004FF6F872114001817047000070B50024BF
:104F700000220023058C4FF6FE7635400584028C16
:104F80008388048B4FF68F752C40B51E2C400D88FE
:104F90002C43751E2A400D892A434D882A43144DFF
:104FA000A8420BD0134DA84208D0134DA84205D0FB
:104FB000124DA84202D0124DA84213D14FF6F775F8
:104FC0002A404D892A434FF6FB752A408D882A4393
:104FD0004FF6FF652B404FF6FF552B408D892B4335
:104FE000CD892B4383800483CD888586028470BD60
:104FF000002C0140003401400040014000440140C9
:10500000004801400A460021018B4FF6F773194012
:105010001143018370470021018041808180C1805C
:10502000018141818181C181704700000022028895
:105030001D4B98420ED01D4B98420BD0B0F1804FC3
:1050400008D01B4B984205D01A4B984202D01A4BFD
:10505000984204D14FF68F731A404B881A43174B6E
:10506000984207D0164B984204D04FF6FF431A409F
:10507000CB881A4302808B8883850B8803850A4B73
:1050800098420BD0094B984208D00E4B984205D05D
:105090000D4B984202D00D4B984201D10B7A0386FA
:1050A0000123838270470000002C0140003401403E
:1050B0000004004000080040000C004000100040C8
:1050C00000140040004001400044014000480140FD
:1050D000064909880549091D088000BF0349098858
:1050E00001F040010029F9D0704700000044004061
:1050F00010B540F225511D4800F0AEF810B31B4822
:1051000000F066F9C4B21A48008800F40040C8B93B
:105110001748008800F4804060B10A2C03D00020BA
:105120001349088020E01248008840F400401049EC
:10513000088019E00D2C06D10D48008840F480400D
:105140000B49088010E00A480088C0F30D000949A7
:105150000C5407480088401C054908800846008810
:10516000C72801DD0020088010BD00000038014084
:10517000300000203006002010B540F225510648CE
:1051800000F06AF830B1044800F022F9C4B22046B9
:1051900001F076FA10BD00000044004010B540F266
:1051A00025511D4800F058F810B31B4800F010F9C5
:1051B000C4B21A48008800F40040C8B917480088F3
:1051C00000F4804060B10A2C03D00020134908800D
:1051D00020E01248008840F400401049088019E09F
:1051E0000D2C06D10D48008840F480400B49088002
:1051F00010E00A480088C0F30D0009490C54074824
:105200000088401C0549088008460088C72801DD41
:105210000020088010BD000000480040340000203D
:10522000C007002021B1828942F40052828104E04B
:1052300082894DF6FF731A4082817047002004492D
:10524000A1F80202A1F8000202490880012070477B
:1052500064160020E400002070B5024600240023FC
:105260000025002040F66A16B14200D100BFC1F30C
:10527000421501F01F03012606FA03F3012D02D1A6
:105280009689334006E0022D02D1168A334001E0B0
:10529000968A33400C12012606FA04F4168834402C
:1052A00013B10CB1012000E0002070BDF0B5034641
:1052B000002400260025002040F66A17B94200D1DC
:1052C00000BF1846C1F3421401F01F06012707FA78
:1052D00006F5012C01D10C3004E0022C01D1103074
:1052E00000E014301AB107682F43076002E0076836
:1052F000AF430760F0BD00002DE9F04786B00546DA
:105300000E460024A24600BFA1460027B08900B186
:1053100000BF2F462C8A4CF6FF700440F0880443EF
:105320002C82AC894EF6F3100440B08831890843D2
:10533000718908430443AC81AC8A4FF6FF400440B6
:10534000B0890443AC8201A8FEF79EF91F4887424A
:1053500002D1DDF810A001E0DDF80CA0A88900F46E
:10536000004040B10AEBCA0000EB0A103168490066
:10537000B0FBF1F807E00AEBCA0000EB0A10316855
:105380008900B0FBF1F86420B8FBF0F004012009BB
:10539000642101FB1089A88900F4004040B132204B
:1053A00000EBC900B0FBF1F000F00700044308E097
:1053B000322000EB09106421B0FBF1F000F00F0087
:1053C00004432C8106B0BDE8F0870000003801409E
:1053D00001468888C0F30800704710B54FF480205C
:1053E000FDF7E8FA10BD704710B508480849086095
:1053F00002200968087207480749086007480849F9
:105400000860054909680868804710BD48160020F3
:10541000D000002058010020D40000208801002086
:10542000DC0000200EB54FF48020FDF7C3FA4FF4E6
:105430008020009008208DF8050001208DF80600DE
:105440006846FDF7BDFA14208DF8080001208DF89C
:10545000090000208DF80A0001208DF80B0002A839
:10546000FDF724FF2A208DF8080000208DF80900A0
:1054700002A8FDF71BFF0EBD10B588B000246948D7
:105480000068694908800846008800F40070674990
:105490000988084050B14FF6FF50624908606448DF
:1054A0000078401C62490870FEF7E8FC5E480088FE
:1054B00000F400405D490988084008B1FCF72EFD62
:1054C0005948008800F4806058490988084030B184
:1054D0004FF6FF30534908605649486880475248A4
:1054E000008800F4005051490988084018B14DF671
:1054F000FF704C4908604C48008800F480504B49CC
:105500000988084030B14EF6FF7046490860002017
:10551000FEF73AFC4448008800F4006043490988DB
:10552000084060B14448007810B1FFF761FA02E02A
:105530000220FEF729FC4FF2FF703A4908603A4812
:10554000008800F48070394909880840002866D036
:105550004FF6FF6033490860081D006800F4004002
:10556000002856D035480068401C34490860084679
:105570000068032850D92B48001F006800F008007D
:10558000002849D12748001F006880B22C490860D4
:10559000002408E02B4901EB8400D0F8000C80B215
:1055A0004DF82400641C082CF4D32548006840F012
:1055B0000100234908600846006880B21949091FA4
:1055C00008601F48006820F001001D490860084677
:1055D000006880B21349091F086000BF11480068C5
:1055E00000F480600028F9D04FF6FF300D490860C4
:1055F000002408E05DF8240080B2124A02EB840126
:10560000C1F8000C641C082CF4D300200B4908607E
:1056100002E00020094908600720FEF7B5FB08B04A
:1056200010BD0000445C004004010020DA000020AE
:105630000601002058010020DD01002008010020A3
:105640000C0100200050004010B5FFF715FF10BD01
:1056500010B5044601210420FDF7F0FF3CB10F48CE
:10566000006880B220F002000C49086014E00B488A
:10567000006880B240F002000849086008480068ED
:1056800020F47F20064908600846006840F44C304A
:10569000086000200349086010BD0000405C004025
:1056A00004080140B00121420020064908604FF47F
:1056B0003F4005490880084600880249091F0860E4
:1056C00000207047445C0040DA0000202DE9F041E2
:1056D00004460E46002504F07F00FDF773FB0546E7
:1056E00004F07F00FDF75EFB07462A463946304648
:1056F000FDF7E2FE2846BDE8F081000030B5034624
:105700000A46002133E0585C1A4C248804F4004413
:105710005CBB184C248804F4804464B10A2803D08C
:105720000024144D2C8020E0124C248844F40044C2
:10573000104D2C8019E00D2806D10E4C248844F41D
:1057400080440C4D2C8010E00A4C2488C4F30D04D6
:10575000094D2855074C2488641C064D2C802C4686
:105760002488C72C01DD00242C804C1CE1B291421E
:10577000C9DB30BDE4000020301900200A49B1F82F
:105780000012094A50541146B1F80012491CA2F8FF
:1057900000121146B1F80012B1F5007F02D10021CC
:1057A000A2F80012704700006416002010B508210E
:1057B000034801F049F902490880002010BD0000AB
:1057C0001800002000BFFEE7F0B5144604F1010CFC
:1057D0004FEA6C07DFF824C00CEB41033D460AE0BA
:1057E0000678401C90F800C046EA0C2223F8022BF1
:1057F0009B1C401C6D1E002DF2D1F0BD00600040CE
:1058000070B504460025212C08D1124800680078A4
:1058100000F07F0021280ED10F4D0CE0202C0AD182
:105820000C480068007800F07F00212800D10B4D63
:1058300020200B4908700DB9022070BD0548006892
:10584000856100210348006841820020A8470020AC
:10585000F3E70000D00000208D5800081D5A000812
:105860004801002010B5044602492046FEF742FFD9
:1058700010BD0000B401002010B5044602492046C6
:10588000FEF738FF10BD0000AC010020014629B929
:105890000820034A12681082002070470148FCE784
:1058A000D00000204C01002070B505460648006875
:1058B000C478042C01DD002070BD044800EBC40155
:1058C0002846FEF717FFF7E7D0000020BC010020B4
:1058D0000246002901DD02207047012A01DD022075
:1058E000FAE70020F8E70000014608480068007861
:1058F00000F07F00212807D1022901D10020704744
:10590000222901D10020FAE70220F8E7D000002088
:1059100010B500203449096888723448C07932498A
:1059200009684872002030490968C872FEF730FCE7
:105930004FF400710020FEF725FD10210020FEF736
:10594000E7FC40210020FEF753FC80210020FEF7F9
:10595000C1FC0020FCF75AFC254890F82C100020D0
:10596000FEF758FC0020FEF79BFC00210120FEF70B
:1059700009FDC0210120FEF7ADFC20210120FEF72A
:10598000C7FC00210120FEF76BFC4FF4C061022030
:10599000FEF7F8FC4FF480710220FEF79BFC00211B
:1059A0000220FEF75DFC20210220FEF7B1FC002161
:1059B0000320FEF7E7FC4FF488710320FEF718FC84
:1059C00040210320FEF726FC4FF440510320FEF750
:1059D00047FC00210320FEF79BFC0020FEF7E0FBC4
:1059E00001200449087010BDD0000020067B00088B
:1059F00058010020DC0100200348817A11B1052103
:105A0000024A11707047000048160020DC01002097
:105A10000420014908707047DC010020014629B9C3
:105A20000820034A12681082002070470148FCE7F2
:105A3000D00000204C01002010B505480078202837
:105A400004D1FFF7FBFB00200149087010BD0000E6
:105A5000480100207047000010B5FDF7DBF9002079
:105A6000054909688872FDF78DFDFFF71DFE0020CE
:105A70000249087010BD0000D0000020DC010020A9
:105A8000490050EAC12018BF04204A0D18BF40F059
:105A9000010040F2FF72B2EB515F08BF40F002001C
:105AA000012808BF0520704730380A2801D201209C
:105AB000704700207047014600BF70472DE9F04154
:105AC0001E49B1F9000001F09FFE8046404601F0FA
:105AD000ADFD06461A4A1B4B01F0AAFC044601F034
