:020000040800F2
:1000000000150020D5000008F52D00084F2100083C
:1000100000000000000000000000000000000000E0
:100020000000000000000000000000001133000884
:1000300000000000000000006930000813330008D1
:10004000E7000008E7000008C5320008E7000008E4
:10005000E7000008E70000080D050008E7000008B9
:1000600000000000C1040008D1040008E7000008F7
:10007000E7000008E700000800000000E7000008B3
:1000800000000000493400080000000000000000EB
:10009000E700000800000000E7000008E700000893
:1000A000E7000008E7000008E7000008093600083C
:1000B00019360008E70000080000000000000000FA
:1000C0000348854600F03AF900480047C14400085B
:1000D000001500200448804704480047FEE7FEE77B
:1000E000FEE7FEE7FEE7FEE7F5330008C100000883
:1000F00030B50B46014600202022012409E00D46C0
:10010000D5409D4205D31D469540491B2546954047
:1001100040191546521E002DF1DC30BD03460B433D
:100120009B0703D009E008C9121F08C0042AFAD2AD
:1001300003E00B780370401C491C521EF9D2704733
:10014000D2B201E00270401C491EFBD2704700226F
:10015000F6E710B513460A4604461946FFF7F0FFC6
:10016000204610BD0321001D401E037812021A43D1
:10017000491EF9D510467047024670B54A40D30F64
:10018000DB0740002DD04A002AD0010E140E0002D9
:1001900012020919400A520A8418E5010446544320
:1001A000000A120A2E045043A4194219200CC54318
:1001B000AA18120C0125AD03521C521912047F39E2
:1001C000240400D0521C104301D44000491EC2B286
:1001D0000C06C0092018401C4008802A02D003E009
:1001E000002070BD40084000002900DA00201843BC
:1001F00070BD70B502464A40D50F40004A00ED0779
:1002000040085208002814D0002A12D0C40DD30D83
:1002100041020120C0055202490A520AE41A091893
:1002200012187D34914201D3641C00E04900002C77
:1002300001DA002070BD0023914201D3891A0343E3
:10024000400849000028F7D100290AD0914202D184
:100250000121C90705E0914201D2012101E00121FC
:10026000C943E005C018401900F027F870BDC21757
:10027000C10F504010B54018CA079623002100F066
:1002800024F810BD10B500229623114600F01DF889
:1002900010BD410040020122400AD205090E80181B
:1002A0007F2901DA00207047962903DC9622511A33
:1002B000C8407047963988407047002904DA401CCE
:1002C000490001D140084000704770B40024050C7B
:1002D00005D11024000402D1002921D01124050EDB
:1002E00001D100020834050F01D10001241D850F42
:1002F00001D18000A41C002801DB4000641C0029FF
:1003000008D020252E1B0D46F540A14000D001212C
:100310002943084301061B1B000ADB1D02D50020F0
:1003200070BC7047DB05181880180029F8DA401CEB
:100330004900F5D170BC400840007047064C0125CB
:10034000064E05E0E36807CC2B430C3C984710347D
:10035000B442F7D3FFF7B8FEF44A0008144B000884
:1003600010B50146806A426D50231A420AD1416D90
:1003700001225202114341650168CA681205920FB9
:1003800005D021E0C06C426B0846904710BD20228A
:10039000125C002A18D10A68120715D58A6853071B
:1003A0000122002B09DB4B680C24A3434B60416DF9
:1003B000130299431143416506E0416D202319431F
:1003C0004165816D1143816500F0C2F910BD10B522
:1003D000806A416D402211434165816D04221143C1
:1003E000816500F0BCF910BD10B5806A00F0B6F967
:1003F00010BD000038B50446064805490068FFF7FF
:1004000077FE604300E0401E00900028FBD138BD1D
:1004100040420F0018000020F8B5044600688168CB
:100420008907890F012902D10168C90722D1816892
:10043000114A10261140012500290ED18168294357
:1004400081600120FFF7D6FF00F0B4FC07460CE006
:1004500000F0B0FCC01B0A2807D9606D304360650E
:10046000A06D2843A0650120F8BD20680068C04346
:10047000C007EDD10020F8BD1700008010B54C007A
:100480000E49036861184C78012C04D0022C04D06A
:10049000042C06D00CE01A700AE0140A1C705A7082
:1004A00006E0140E1C70140C5C70140A9C70DA7058
:1004B000497802685118016010BD00009E4800088C
:1004C00010B5024800F0DCFA10BD000074010020F5
:1004D00010B5024800F0D4FA10BD00000802002058
:1004E00030B5446C1C252C400125A540046C65608A
:1004F000046863608368102B036803D09960006808
:10050000C26030BD9A600068C16030BD70B5042023
:1005100001F06EFE0A4D0B4C002805D004206861E6
:100520002068002800D08047082001F061FE0028E4
:1005300005D0082068616068002800D0804770BD41
:100540000004014008000020F0B585B05848029032
:100550001E21801C03F044FF0446132102A802F070
:100560005DFD844202D0012005B0F0BD142102A837
:1005700002F054FD0006000E02D0012862D162E0B4
:10058000182102A802F04AFD4A4CC0B22178012588
:10059000042905D1257003F0A9FE002804D000200D
:1005A0002178012902D003E00120F9E7012803D0D6
:1005B0002178022908D011E00220207003F096FE75
:1005C00001280BD0012007E0002807D1257003F097
:1005D0008DFE002802D0002003F04AFE207800287B
:1005E00000D12570152102A802F018FD85B2162150
:1005F00002A802F013FD86B2172102A802F00EFD38
:1006000087B22078022802D0FF20F53010E00120C8
:10061000C003294C854201D2284601E0281A80B245
:10062000FFF730FE2146FFF7A7FDFFF732FE80B24D
:1006300004F010F93146012003F024FF394602206E
:1006400003F020FF32E00D2102A802F0E7FCC1B266
:100650006846017003910E2102A802F0DFFCC7B2C8
:10066000684647700F2102A802F0D8FCC6B268465F
:100670008670102102A802F0D1FCC5B26846C57090
:10068000112102A802F0CAFCC4B26846047112210A
:1006900002A802F0C3FCC1B26846417101912B4629
:1006A000324600943946039802F014FE00205BE7BE
:1006B000B40000200400002023DB793FF8B5064693
:1006C0000D464036317C01290DD00121317401687D
:1006D0008A68520709D5416D2022114341650020E7
:1006E00030740120F8BD0220F8BD174B6A68D805A8
:1006F00047109A42154C8A6A2B6812D05B035B0B39
:100700001A438A622968490305D5A1680143A1609B
:100710000A20FFF76FFE2868800312D5A0683843CF
:100720000EE05B035B0B9A438A622968490302D59A
:10073000A1688143A1602868800302D5A068B843FE
:10074000A06000203074F8BD0110000000270140B7
:100750000149002048817047D4000020704770474D
:1007600070B5040006D0606D26460025403600288E
:1007700002D006E0012070BDA5653574204600F06A
:10078000D3F8606DC00603D421688868400705D59A
:10079000606D1021084360653574EBE7606DFF22E2
:1007A0000132904302221043606588688207920FED
:1007B0005B48012A02D10A68D2072BD10323626861
:1007C0009B079A4205D05B429A4202D05B009A4254
:1007D00009D10A69920092080A6121680A6963686E
:1007E0001A430A610CE00A69920092080A61816862
:1007F0000F22920491438160816862681143816095
:100800002168CA6818239A43CA602168CA68A36825
:100810001A43CA608168012252069143816081684F
:10082000A28E52061143816020688168C90004D4F9
:10083000816801221207114381602068C168394A2A
:100840001140C1602069E168022825D000200143E1
:10085000204620300278037B52035B001A43114389
:10086000226B1143A26992031143E269D20311433F
:100870002268D3681943D160616A0A46FF3AC23AD6
:1008800005D0A26A11432268D3681943D160427827
:100890000121012A02D00BE00420D8E700780028CB
:1008A00023D0606D202210436065A06D0843A065D1
:1008B000E06B012820681FD00169C90703D00169D6
:1008C00049084900016120684169C908C9004161BE
:1008D00020684169A26B11434161A565606D800884
:1008E0008000401C6065002070BD2068C268012344
:1008F0001B041A43C260DBE70269FF239B009A4393
:10090000026120680269236CA66C1A43636C33434E
:100910001A430261206802690A430261D3E70000BA
:10092000002701401902FEFF70B586B0064614216B
:1009300001A8FFF70CFC1D493068884234D11C49DE
:10094000486B4A1510434863CA6A02200243CA62D0
:10095000C96A00250140032001900091029003958F
:1009600001A9144800F06AF91348144C21C4256009
:1009700080206560A0604000E060800065612061CB
:100980008000A0610D48083C00F0CEF8002809D096
:10099000762000900AA30EA22021104802F0CCFE7F
:1009A00002F0F2FEF464A66206B070BD00240140BD
:1009B00000100240000400500800024074010020B2
:1009C0002E2E2F5372632F6164632E63000000008C
:1009D0006572723A25732C25640D0A00F800002018
:1009E000F7B5044600680025806840073DD42646D8
:1009F0004036307C01280AD001273774E06901288D
:100A000007D02046FFF708FD050002D02EE00220A7
:100A1000FEBD606D16490840FF2101310843606545
:100A20000020A0653074E16C1248C862E16C124885
:100A30000863E16C1148486321681C200860206845
:100A400041681022114341602068C1683943C16088
:100A50002168E06C4031029B019A00F0ADF82068FB
:100A6000816804221143816000E002252846FEBD12
:100A7000FEF1FFFF61030008E9030008CF0300084F
:100A8000F0B4016C0D6801680C68466C1C230422EC
:100A90001E401746B7402F420ED067070CD50C6892
:100AA000A40602D40C6894430C60416C19408A403F
:100AB000016C4A60016B1AE00227B74002462F40E2
:100AC0002032002F17D0A70715D50C68A40605D42F
:100AD0000C680A25AC430C6001215171446C022161
:100AE0001C40036CA140596000211171C16A0029AA
:100AF00018D0F0BC08470827B7402F4212D024076F
:100B000010D50C680E25AC430C60446C01211C40D0
:100B10000B46A340046C6360C163517100211171E5
:100B2000416BE4E7F0BC704770B504003CD01F484F
:100B3000256814212818FFF7DBFA800060641C4840
:100B4000206402212046203002464171296819485C
:100B5000E3680140A068666918432369334318437A
:100B6000A3691843E3691843236A184308432860BC
:100B70000121A0688903884210D00D488030836A23
:100B8000656C1C210D400F26AE40B3438362656C3B
:100B900063680D40816AAB400B4383620020E063D1
:100BA00001215171107170BD012070BDF8FFFDBFB2
:100BB000000002400F80FFFFF8B504468C4620304D
:100BC00001790025012909D0012606714179002704
:100BD000012905D0077102252846F8BD0220F8BD7D
:100BE00002214171E76320680168490849000160FA
:100BF00061462046FFF774FC206B002820680168DE
:100C000001D00E2205E004229143016020680168B2
:100C10000A22114301602068016831430160DBE76B
:100C200070B5044600F0C6F80546601C00D0641C90
:100C300000F0C0F8401BA042FAD370BDF8B5002305
:100C40000124A2E027469F403A4070D04D68022D13
:100C500001D0122D14D1DD08AD002D1800952D6A9C
:100C60005E07AC46F50E0F26AE46AE406546B54370
:100C7000AC460E697546AE4065462E43009D2E6219
:100C80004D68012D05D0022D03D0112D01D0122D5C
:100C900016D185680326AC465D00AE46AE4065467B
:100CA000B543AC46CE687546AE4065462E43866079
:100CB00046680D79BE43ED06ED0F9D403543456016
:100CC00006685F000325BD40AE46AE430D79B446CD
:100CD000AE07B60FBE4065462E430660C668754631
:100CE000AE438D68BD403543C5604D68ED004BD5C2
:100CF000294D6E6B26436E639E08284DB60075190C
:100D0000AC46AD689E07360F0F27B740BD43052799
:100D10003F07B84201D1002715E0214FB84201D169
:100D2000012710E01F4FB84202D102270BE02BE051
:100D30001D4FB84201D1032705E01C4FB84201D135
:100D4000052700E00627B7402F436546AF60184DE2
:100D50002E684F689643FF0300D516432E606E68D9
:100D60004F689643BF0300D516436E60AE684F6868
:100D70009643FF0200D51643AE60EE684F68964377
:100D8000BF0200D51643EE605B1C0A681546DD40C5
:100D900000D057E7F8BD00000010024000000140FD
:100DA0000004005000080050000C0050001C0050CF
:100DB0000004014001480068704700001C0000204A
:100DC00070B5024640325378202B1CD11378012B8A
:100DD00019D00123137024245470046825689D439E
:100DE0002560046825681E03B543256004682568EE
:100DF0000D43256000680168194301602020507090
:100E00000020107070BD022070BD70B502464032E7
:100E10005378202B1BD11378012B18D00124147088
:100E20002423537003681D68A5431D6005682B6863
:100E30000F263602B343090219432960006801688E
:100E400021430160202050700020107070BD0220EE
:100E500070BD000070B5040006D0254640356878A6
:100E60000026002802D005E0012070BD2E7020462B
:100E700000F04AF824206870206801684908490099
:100E800001600F21606809068843216808612168B4
:100E90008A680120C00382438A60E1680129A16851
:100EA00008D021229202114322689160E168022950
:100EB00002D005E00143F7E701212268C902516031
:100EC00021684A680F4B1A434A602168CA68824306
:100ED000CA60616920690843A16909020843216861
:100EE000C860216AE06908432168086020680168D9
:100EF0000122114301606664202068702663AE7091
:100F0000002070BD0080000230B587B00546142176
:100F100001A8FFF71CF920492868884239D11F4CE5
:100F2000E16A02200143E162E16A0140C0200190D0
:100F30000091122001210290032003910591049059
:100F400001A91748FFF77AFEA06B01214905084364
:100F5000A063154C134820600021A1600620E160C9
:100F600060606161A1618020E161206140012062D7
:100F70002046FFF7D9FD002809D0642000900BA37C
:100F80000EA22021104802F0D7FB02F0FDFBEC631B
:100F9000A56207B030BD00000054004000100240C0
:100FA0000004005030000240080200202E2E2F5373
:100FB00072632F6932632E63000000006572723A1B
:100FC00025732C25640D0A00F800002002480168F2
:100FD000491C0160704700001C00002010B5084843
:100FE00000240168402211430160204600F00AF805
:100FF000002801D0012401E000F01CF8204610BDBB
:101000000020024070B5054609487D210024C90032
:101010000068FFF76DF800F0BDFD002801D0012445
:1010200004E000222946501E00F01AF8204670BD48
:10103000180000200448416B012211434163816B79
:10104000020411438163704700100240C106C90EBB
:1010500001208840014908607047000000E100E07D
:1010600010B501F0B9FF10BDF8B504460078544D35
:10107000800672D5524E0027403EB06BC00004D4AB
:10108000B06BA9050843B06301274E480168C90544
:1010900011D40168821511430160FFF78BFE0090A7
:1010A00005E0FFF787FE0099401A642837D84548C5
:1010B0000068C005F5D532680321090560680A405B
:1010C0000140914208D08103890F032904D131687E
:1010D000890301D50120F8BD2A69032109040A40CA
:1010E00022D0084090421FD0207880061CD5286965
:1010F0002A6988430121C9040A432A612A698A436B
:101100002A612861C0050FD5FFF754FE009008E062
:10111000FFF750FE0099411A2B48814201D9032064
:10112000F8BD28698005F3D561688803800F03281E
:1011300005D132680005824301400A4332602869C4
:10114000032261681204114008432861002F04D073
:10115000B16B012000078143B1632078C00705D03F
:10116000E868A168800880000843E860207880076C
:1011700005D5E8680C218843E1680843E8602078D9
:10118000400706D5E868032189028843216908439E
:10119000E8602078000706D5E86803210903884342
:1011A00061690843E8602078000606D5E8680321F5
:1011B00089048843A1690843E8600020F8BD000065
:1011C000401002400070004088130000F8B50E4641
:1011D00005007DD053480068C007C00FB0420AD256
:1011E0005048016849084900314301600068C00760
:1011F000C00FB04271D128784B4C800705D5E0680C
:10120000F0218843A9680843E0602878C00752D0DD
:101210006868022817D0032818D02168012818D040
:101220008905002959DAE168890889000143E160EC
:10123000FFF7C0FD69680746022912D003291CD0B8
:10124000012926D033E021688903EAE72168890172
:10125000E7E74907E5E7FFF7ADFDC11B33488142EA
:1012600023D8E0680007800F0228F4D123E0FFF7BD
:10127000A1FDC11B2D48814217D8E0680007800FEF
:101280000328F4D117E0FFF795FDC11B27488142E1
:101290000BD8E0680007800F0128F4D10BE0FFF7BE
:1012A00089FDC11B2148814201D90320F8BDE068B6
:1012B0000007800FF3D11B480168C907C90FB1426D
:1012C0000DD901684908490031430160006800E018
:1012D00003E0C007C00FB04201D00120F8BD28785C
:1012E000400706D5E068072109028843E9680843FA
:1012F000E0602878000707D5E0680721C902884325
:101300002969C9000843E06000F016F8E168084A5E
:101310000906090F515CC840064908600020FFF724
:1013200071FEF8BD0020024000100240881300004A
:10133000D04800081800002010B5184AD1680C20C9
:10134000084004280BD0082810D00C2810D0506872
:101350000004410F0120C003491C884010BD1068E3
:10136000C00601D50E4810BD0E4810BD0E4810BD78
:1013700088020E4B000F185C0902D368890F491CC4
:10138000DB0301D5084A05E01268D20601D5044AFC
:1013900000E0044A5043FEF7ABFE10BD00100240CF
:1013A00000093D000024F40000127A00E048000823
:1013B000FEB505007ED0FE4CE7680C20E6680740CD
:1013C0000120000406402878C00747D0082F05D028
:1013D0000C2F0AD101200004864206D12068800328
:1013E0003CD568680028E5D038E001206968000431
:1013F000814203D121680143216011E005230122CC
:101400001B0492049942216802D111432160F1E743
:101410008143216021680140009120689043206051
:10142000686800280DD0FFF7C5FC009005E0FFF7C5
:10143000C1FC0099401A64287AD820688003F6D548
:101440000CE0FFF7B7FC009005E0FFF7B3FC009954
:10145000401A6428F0D820688003F6D428788007E2
:1014600055D50923E868042F0DD00C2F01D1002E8B
:1014700009D000283BD02168994301432160FFF740
:1014800099FC064627E02168490701D5002891D03C
:1014900061681F22120291432A691202114361609E
:1014A0002168994301432160FFF746FFE16809067F
:1014B0000A0F00E079E1BF49895CC840BE49086075
:1014C0000020FFF79FFD002872D120E0FFF772FC9B
:1014D000801B0228B0D820684007F7D560681F211C
:1014E0000902884329690902084360600FE0206807
:1014F000400840002060FFF75DFC064604E0FFF76F
:1015000059FC801B022897D820684007F7D4287818
:10151000C0065FD5002F0CD0A869002849D02068EC
:10152000FF21013108432060FFF744FC06462DE00F
:10153000C0E02068800502D5A8690028A7D06068AF
:10154000072149038843296A084360606068297F4E
:101550000002000A090608436060286A410B012066
:10156000C003491C8840E16809060A0F9149895C5B
:10157000C840914908600020FFF744FD002817D1BA
:1015800028E0FFF717FC801B0228A3D820688005FD
:10159000F7D56068072149038843296A08436060DA
:1015A0006068297F0002000A09060843606011E0B4
:1015B000E1E02168FF20013081432160FFF7FAFB61
:1015C000064604E0FFF7F6FB801B022872D820686D
:1015D0008005F7D42878794E000724D5686900285B
:1015E000306910D0012108433061FFF7E3FB009020
:1015F00005E0FFF7DFFB0099401A02285AD830694E
:101600008007F6D50FE0400840003061FFF7D2FBBD
:10161000009005E0FFF7CEFB0099401A022849D858
:1016200030698007F6D42878400765D500200290FD
:10163000A06BC00006D4A06B012109070843A0637A
:10164000012002905E480168C90511D40168821525
:1016500011430160FFF7AEFB009005E0FFF7AAFB26
:101660000099401A642825D855480068C005F5D56A
:10167000FF20AA680130824203D131690143316100
:1016800011E001218902002A07D005231B029A429A
:1016900003D132690A433261EFE732698243326132
:1016A000306988433061A86800280FD0FFF782FBBB
:1016B000009007E05EE0FFF77DFB0099411A41488A
:1016C000814257D830698005F5D50DE0FFF772FBF0
:1016D000009006E0FFF76EFB0099411A39488142FD
:1016E00048D830698005F5D40298002804D0A06B52
:1016F000012109078843A063686A002864D00C2F81
:101700003ED0012636060228206805D0B04320606E
:10171000FFF750FB05462FE0B0432060FFF74AFB80
:10172000074604E0FFF746FBC01B022822D82068CA
:101730008001F7D4E96AA86AE2680843296BFD23AF
:101740001B049A4311430843E06020683043206043
:10175000FFF730FB054604E0FFF72CFB401B022897
:1017600008D820688001F7D52EE0FFF723FB401B47
:10177000022801D90320FEBD20688001F5D423E0B2
:101780000128F8D0E06801210904AA6A01409142C9
:101790000BD10F218904EA6A0140914205D103214E
:1017A00089050840296B88420ED00120FEBD00004B
:1017B00000100240D04800081800002040100240ED
:1017C00000700040881300000020EFE700688900E7
:1017D00050300818006870470068890050300818B9
:1017E000026070477047000010B504460068C0688A
:1017F000400509D52046FFF7F5FF2068C168802223
:101800001140054A8918C16001200449000548615A
:1018100001202034607010BD7FFBFFFF00040140F9
:1018200010B500680B464068C021C9430140000262
:10183000000ECC04D870E40E5C708C06A40E090473
:10184000490F9C701970002A0AD101F0E6FCD8708B
:10185000587801F0E2FC5870987801F0DEFC98703E
:10186000002010BD30B50B460168896A59600168D7
:1018700009694904490C9960006804680F482146C9
:10188000014088024D04800E18706D0E49065D708F
:10189000490E99706102490E40242140D970002AF6
:1018A0000AD101F0BAFC1870587801F0B6FC5870F3
:1018B000987801F0B2FC9870002030BD7F7F7F00E7
:1018C000F8B5040050D0254620356878002803D1AB
:1018D0002870204600F052F8022068702168CA2063
:1018E0004862216853204862204601F0AAFCFF2686
:1018F00004270028206802D046626F7034E08168B7
:101900001D4A11408160216888686268A36910439C
:1019100022691A43104388602168E06808612068E2
:10192000016922891204114301612068C168802283
:101930009143C1602068C16C89088900C164E16974
:10194000606901432068C26C1143C16420688068EB
:1019500080060BD4204600F0FFF8002806D020684F
:1019600046626F70002028700120F8BD2068466232
:10197000012068700020F8BDBFFF8FFF10B5006820
:10198000084988420DD10848016901229204114397
:101990000161002211460220FFF762FB0220FFF7DF
:1019A00055FB10BD0028004040100240F8B5054628
:1019B0000446203528780B4601280FD001202870D6
:1019C00002206870002A0BD0D8789E780004064365
:1019D0005878097800024903084317E00220F8BD4F
:1019E0005878C10603D5EF2108400A305870D878DE
:1019F00001F01BFC0604587801F017FC00020643B6
:101A0000987801F012FC06431878400306432168D9
:101A1000CA204862216853204862204601F011FC28
:101A20000027002811D11148064020684660206830
:101A3000C16880229143C1602068806880060CD410
:101A4000204600F089F8002807D02168FF2048626E
:101A5000042068702F700120F8BD2168FF204862C3
:101A6000012068702F700020F8BD00003FFFFF00CC
:101A7000F8B506460446203630780D46012822D0B7
:101A80000120307002207070206800278068002AD2
:101A90001BD0400600D4EF702978A87809040843C9
:101AA0006978EA780902120411430843009021681A
:101AB000CA204862216853204862204601F0C1FBD9
:101AC000002837D116E00220F8BD400600D4EF70A0
:101AD000287801F0AAFB0304687801F0A6FB000255
:101AE0000343A87801F0A1FB0343E8780004034313
:101AF0000093DCE7174900980840216808602068D7
:101B0000816801229204914381602969E868084351
:101B100021688A68104388602068C16880229143E8
:101B2000C1602068806880060CD4204600F014F85C
:101B3000002807D02168FF204862042070703770A9
:101B40000120F8BD2168FF204862012070703770C5
:101B50000020F8BD7F7F7F0070B504460068C16833
:101B6000A0229143C160FFF725F97D260546F600C6
:101B700006E0FFF71FF9401BB04201D9032070BDFA
:101B80002068C0688006F4D5002070BD10B502F052
:101B900027FE10BD094910B5401E884201D9012019
:101BA00010BD074C60610321081F01F015FA0020E9
:101BB000A06107202061002010BD0000FFFFFF0092
:101BC00000E000E0F0B502462032137E012B15D074
:101BD000012717760223537605686C68AB68702678
:101BE000B4430E68496826438024A34319436E60BA
:101BF00000688160577600201076F0BD0220F0BDAD
:101C000070B5040005D025462035687E002802D036
:101C100006E0012070BD00202876204600F00AF87A
:101C200002206876211D206801F016FC01206876EC
:101C3000002070BD10B50122016892070F48914243
:101C400004D1816B01221143816310BD0C4A914282
:101C50000CD1816B102211438163002211461120A7
:101C6000FFF7FEF91120FFF7F1F910BD054A914287
:101C7000FBD1416B20221143416310BD0010024093
:101C800000100040001401400268D36801210B439A
:101C9000D360006882685207520F062A02D0026899
:101CA0000A43026000207047F8B505460446203517
:101CB000287E012817D001262E7602206876226819
:101CC00090687727FF23B8431B02984390600A6807
:101CD000502A31D00EDC202A4BD006DC002A48D016
:101CE000102A3AD145E00220F8BD302A41D0402ADE
:101CF00033D136E0602A27D0702A12D001200003A9
:101D0000121A2AD0824228D1CB684A688968206892
:101D100001F0DBFB2068816801229203114381609E
:101D20001BE0CB684A688968206801F0CEFB216817
:101D300088683843886010E0CA684968206801F004
:101D40003EFC5021206806E0CA684968206801F01E
:101D500047FC6021206801F0C3FB6E7600202876E6
:101D6000F8BDCA684968206801F029FC4021206854
:101D7000F1E711462068EEE7704770B50446006849
:101D800001690025C9438907002915DBC168C943DA
:101D9000890711D4E91E016101202076206880693D
:101DA0008007204602D0FFF7E7FF04E000F0DCF8F0
:101DB000204600F078F9257620680169C943490773
:101DC00017D4C168C943490713D40421C943016129
:101DD00002202076206880698005800F204602D08E
:101DE000FFF7CAFF04E000F0BFF8204600F05BF9FF
:101DF000257620680169C943090716D4C168C9431B
:101E0000090712D40821C943016104202076206803
:101E1000C0698007204602D0FFF7AEFF04E000F063
:101E2000A3F8204600F03FF9257620680169C943F0
:101E3000C90617D4C168C943C90613D41021C943C0
:101E40000161082020762068C0698005800F204647
:101E500002D0FFF791FF04E000F086F8204600F082
:101E600022F9257620680169C943C90708D1C168EC
:101E7000C943C90704D1891E0161204600F03CF91D
:101E800020680169C943490609D4C168C9434906A4
:101E900005D44021C9430161204600F057F970BDC7
:101EA00010B586B0044614216846FEF750F9236841
:101EB0000124A407002215490220A34210D1CB6AB5
:101EC00001242343CB62C96A0190214005910B2173
:101ED000049000910520029203926946000711E0E8
:101EE0000B4CA34210D1CB6A0343CB62C96A019069
:101EF0000140059110210420009104900292039268
:101F000069460448FEF79AFE06B010BD0010024074
:101F1000001401400004005070B504462034237EB4
:101F2000012B0CD00125257602236376002A08D0E8
:101F3000042A0AD0082A0CD00C2A11D10DE0022064
:101F400070BD006801F0D4FA0AE0006801F0E8FA18
:101F500006E0006801F0FDFA02E0006801F014FB01
:101F600065760020207670BD704770B5040005D0FE
:101F700025462035687E002802D006E0012070BD8D
:101F800000202876204600F00AF802206876211DFD
:101F9000206801F061FA01206876002070BD70476A
:101FA000F8B5064604462036307E0D4601280DD091
:101FB00001203076022070760427002A08D0042AF7
:101FC00016D0082A2AD00C2A4DD137E00220F8BDBD
:101FD000206801F08DFA206881690822114381612F
:101FE00020688169B943816120688169EA6812E0EB
:101FF000206801F095FA206882690121C9020A432C
:102000008261206881690122920291438161206886
:102010008169EA6812021143816124E0206801F0BD
:1020200098FA2068C26908210A43C2612068C16920
:10203000B943C1612068C169EA6812E0206801F013
:10204000A3FA2068C1690122D2021143C16120684C
:10205000C269012189028A43C2612068C169EA68B4
:1020600012021143C1610120707600203076F8BD64
:1020700070B5040005D025462035687E002802D0C2
:1020800006E0012070BD00202876204600F00AF806
:1020900002206876211D206801F0DEF901206876B3
:1020A000002070BD7047704710B5044600680122DB
:1020B00001F0FEF9206881684907490F062903D01D
:1020C0000168012211430160002010BD10B50446D3
:1020D0000068002201F0ECF92068016A054A11420B
:1020E00003D101684908490001600120203460766D
:1020F000002010BD11110000104910B5814219D106
:102100000F4C2078002805D101F08EFA20210D48CF
:1021100000F00EFF61887D22D2000B4891420AD266
:10212000491C89B26180192904D104210170501021
:1021300002F090FB10BD0021017010BDC402002010
:102140000000002094000020040000207047FEE7FB
:1021500010B50479002325490268002C3DD0002ADF
:1021600042D04479002C0FD0012C15D0022C16D06F
:1021700001238279002A37D0012A18D0022A1FD0E1
:10218000032A21D001232FE04C6894434C6002685D
:102190000C6814430C60ECE70C68944301E00C6895
:1021A00014430C6002684C6814434C60E1E7026819
:1021B000CC689443CC6000688A6802438A6013E06C
:1021C00002688C68944302E002688C6814438C6057
:1021D0000068CA680243CA6006E00C6894430C6059
:1021E00000684A6882434A60184610BD00040140F6
:1021F00003494969884301D0002070470120704796
:1022000000040140F0B500243EE001232A46A3402B
:102210001A4038D04F680668134653435D005D1975
:10222000AE435F433E4306604E68012E01D0022E4E
:1022300005D18F6886685F43AE433E4386600F6971
:10224000C668AE431D467D432E43C6604D68022DD1
:1022500019D1FF2A0AD84E69056A534353431A011C
:10226000D21A954373431D4305620CE0130A1A46C4
:102270005A435A435A4313019E1A4D69436A6A43AB
:10228000B34313434362641C0A681546E240BCD161
:102290004A68012A01D0022A06D1CB6841682A4641
:1022A00091435A43114341600020F0BD10B50368CB
:1022B00049434C000C19A34351430B43036010BD29
:1022C00010B5C36849434C000C19A34351430B4359
:1022D000C36010BD08B50449CA6A0243CA62C96A2C
:1022E0000140009108BD00000010024008B50449FB
:1022F000CA6A0243CA62C96A0140009108BD00006F
:1023000000100240F8B5204D01270024AE00FF0365
:10231000032802D00C2824D021E000F03BF81B4910
:1023200040182ED0012809D0022813D000F0C4FE96
:1023300000F09CFE00F0B4FE044610E000F032F81D
:1023400000280CD000F036F8002801D02C4606E01A
:10235000344604E000F036F8002800D03C46204621
:10236000F8BD00F017F80A4940180AD00428E5D053
:102370000828EFD000F0A0FE00F078FE00F084FE08
:10238000DAE700F099FED7E700093D00FFFFFCFF08
:10239000FCFFF3FF0249C96801400004084370478D
:1023A00040100240024800684007C00F704700001C
:1023B0000010024002480068C006C00F70470000CD
:1023C00000100240024800698005C00F70470000FD
:1023D0004010024010B5036801225B06DB0F25D1D7
:1023E0000CC94C681A430B6823431A438B681A4381
:1023F000CB681A430B691A434B691A438B691A431A
:1024000003680E4C23401A430260426804239A4337
:10241000CB681B0C1A43426001238A695B030839AD
:102420009A4202D1898C89B201610022C1690123DB
:10243000DB029943C161104610BD00004000FFFF60
:102440000A06930D054A10B59B189A68090C0F24CB
:102450008C40A243884002439A6010BD00000140B6
:1024600041680922D2029143416081682A22914346
:102470008160704770B5044600680D460126304003
:1024800041D1E9686868AA6908432969114308438A
:1024900021681E4A114008432060A9686068032231
:1024A00012039043084360606969A0681211904369
:1024B0000843A0601648844201D1032003E0154878
:1024C000844220D10C20FFF71DFF00281BD0296873
:1024D000002918D00123AA690026DB039A420CD1F7
:1024E00040004A088018FDF703FE81B20A48084000
:1024F0000907490F0143E16005E04A081018FDF79C
:10250000F7FD80B2E060304670BD0000F369FFEF78
:102510000038014000440040F0FF00003EB50021BB
:1025200032480191304A02910260C1631205426053
:10253000816001230522036182630246C16020326B
:102540001170FF245170C2344462816213730163BD
:102550008161042241634261C161FEF701F90028F3
:1025600009D03820009022A325A22021274801F07D
:10257000E3F801F009F9264801904014029001A9FE
:102580001A48FEF79BF8002809D04020009018A3B5
:102590001BA220211D4801F0CFF801F0F5F81D48DD
:1025A000019001A91148FEF789F8002809D04720B9
:1025B00000900FA312A22021144801F0BDF801F0F1
:1025C000E3F81548019001A90848FEF777F80028BC
:1025D00009D04E20009006A309A220210B4801F04B
:1025E000ABF801F0D1F83EBD0024014018010020F5
:1025F0002E2E2F5372632F6164632E630000000040
:102600006572723A25732C25640D0A00F8000020CB
:1026100000010020000200240000044808B50C4816
:10262000016B012211430163006B022110400090F5
:1026300000220920FEF714FD0920FEF707FD002205
:1026400002210A20FEF70CFD0A20FEF7FFFC08BD60
:1026500000100240F0B589B00024069418216846A5
:102660000794FDF774FD0420FFF734FE0120FFF707
:1026700031FE0220FFF72EFE0121384889038162D6
:10268000102205263607B2624022B262344F202261
:10269000BA6201250091029403940195049469465D
:1026A000FFF7B0FD10200090029403946946019555
:1026B00004943046FFF7A6FD402000900294039456
:1026C0006946019504943046FFF79CFD2020009058
:1026D000029403946946019504943846FFF792FDED
:1026E000E9040120FFF7ACFE032189040120FFF774
:1026F000A7FE012204213846FFF7E2FD012208214E
:102700003846FFF7DDFD002204213846FFF7CEFDF5
:10271000002208213846FFF7C9FD042006906846CC
:1027200005774477857706A8FFF712FD0820069005
:102730006846057744770221817706A8FFF708FDF0
:1027400008490868FF2212049043AA051043086054
:1027500005494020086009B0F0BD000000080050A5
:102760000004005004E400E000E100E008B51F4868
:102770001D4901601E494160002181600161416184
:1027800081610122C161C2600162FEF763FB002822
:1027900009D02D20009017A31AA220211C4800F078
:1027A000CBFF00F0F1FF00211048FEF709FB0028E5
:1027B00009D0332000900FA312A22021144800F06A
:1027C000BBFF00F0E1FF00210848FEF71EFB0028D8
:1027D00009D03920009007A30AA220210C4800F05C
:1027E000ABFF00F0D1FF08BD00540040BC01002049
:1027F000380F30002E2E2F5372632F6932632E63F1
:10280000000000006572723A25732C25640D0A00E1
:10281000F800002010B588B0142102A8FDF797FC3D
:10282000002427492748019412C07F210160846059
:10283000C4600461FF21446141600838FFF740F83B
:10284000002809D0332000901FA323A2202125486F
:1028500000F072FF00F098FF6846047244728472C0
:102860000594002202A917480694FFF701F90028F1
:1028700009D04320009014A317A22021194800F08A
:102880005BFF00F081FF0721684601710321417160
:10289000012181711421C171002201A90948FFF7AA
:1028A00085F8002809D04C20009007A30AA2202117
:1028B0000C4800F041FF00F067FF08B010BD0000B9
:1028C00000280040640200202E2E5C5372635C726C
:1028D00074632E63000000006572723A25732C2524
:1028E000640D0A00F8000020F0B591B0282106A878
:1028F000FDF72DFC18216846FDF729FC254801212C
:10290000426B09030A434263426B0A401092C26A57
:1029100001210A43C262C06A0024084010902020AE
:1029200002250326039404946A46059461C2052790
:102930003F0769463846FFF765FC802003940494FE
:102940006A46059461C269463846FFF75BFCA802F7
:10295000039404946A46059461C269463846FFF7B9
:1029600051FCFF2005300790280206940894099432
:102970000A940D940E940B900720074C10250F908D
:102980000C9506A92046FFF725FD6068A843606006
:1029900011B0F0BD001002400030014030B58BB0E6
:1029A00000240594069407940894099437480A94DF
:1029B0000194029403943449049401601F218460BB
:1029C0004160334980250C3032C01838FFF718F9C0
:1029D000002809D0772000902EA332A2202134486D
:1029E00000F0AAFE00F0D0FE01200003059005A92A
:1029F0002648FFF759F9002809D07C20009025A32C
:102A000028A220212A4800F097FE00F0BDFE1F48B2
:102A1000FFF7ABFA002808D01EA322A220212448E9
:102A2000009500F089FE00F0AFFE099409A917484F
:102A30000A94FFF7C7F8002809D08620009015A354
:102A400018A220211A4800F077FE00F09DFEFF201A
:102A5000F530029001940394002201A904940B48DC
:102A6000FFF75AFA002809D08E20009009A30DA282
:102A700020210F4800F060FE00F086FE0348FFF7BB
:102A80000FFA0BB030BD000000140140000300201D
:102A9000E70300002E2E2F5372632F74696D2E638F
:102AA000000000006572723A25732C25640D0A003F
:102AB000F800002010B58CB000240594069407940B
:102AC00008940994012148480A94019402940394BB
:102AD0008907049401601F218460416043490461B7
:102AE000C16080214161FFF78BF8002809D02E20BA
:102AF00000903FA342A22021444800F01DFE00F0B8
:102B000043FE01200003059005A93748FFF7CCF8E4
:102B1000002809D03320009035A339A220213B485A
:102B200000F00AFE00F030FE2F48FFF7A1FA00285F
:102B300009D0372000902EA331A22021334800F085
:102B4000FBFD00F021FE099409A927480A94FFF72C
:102B500039F8002809D03D20009025A328A2202183
:102B60002A4800F0E9FD00F00FFE6020019028489F
:102B700002900394002201A904941B48FFF710FA65
:102B8000002809D04520009019A31DA220211F482C
:102B900000F0D2FD00F0F8FD042201A91248FFF771
:102BA000FFF9002809D04920009011A314A2202188
:102BB000164800F0C1FD00F0E7FD0C2201A90A480B
:102BC000FFF7EEF9002809D04D20009008A30CA2D1
:102BD00020210E4800F0B0FD00F0D6FD0248FFF7BE
:102BE0005FF90CB010BD0000880200201F4E0000ED
:102BF0002E2E2F5372632F74696D2E630000000018
:102C00006572723A25732C25640D0A00F8000020C5
:102C1000DC0500003EB500241748019415490294D4
:102C200001601F21846041601449C16080214161BD
:102C3000FEF7E6FF002809D05E20009010A314A242
:102C40002021164800F078FD00F09EFD019401A9B6
:102C500009480294FEF7B6FF002809D064200090CE
:102C600007A30BA220210D4800F066FD00F08CFDAB
:102C70003EBD000000100040C40200208713000089
:102C80002E2E2F5372632F74696D2E630000000087
:102C90006572723A25732C25640D0A00F800002035
:102CA000F0B58FB01C2106A8FDF751FA182168462F
:102CB000FDF74DFA22480121426B89030A43426322
:102CC000406B08400D900120FFF710FB002401200D
:102CD000042740020225032603946A4605970494BC
:102CE00061C2052069460007FFF78CFA6802039469
:102CF0006A460597049461C2052069460007FFF7FC
:102D000081FA01211B2000F045F901250D49E80653
:102D10000860E120400206900794089409940B94FF
:102D20000C940C20084C0A9006A92046FFF7A2FB41
:102D30002046FFF795FB2068284320600FB0F0BDC8
:102D40000010024000E100E000380140F0B58FB013
:102D50001C2106A8FDF7FBF918216846FDF7F7F9D5
:102D600021480121826B49040A438263806B084039
:102D70000D900120FFF7BAFA00240425022603274C
:102D8000039468460494E0C0052069460007059551
:102D9000FFF738FA680303946A4605950494C1C2A4
:102DA000052069460007FFF72DFA01211C2000F0DD
:102DB000F1F801250D4928070860E120400206903E
:102DC0000794089409940B940C940C20084C0A90D6
:102DD00006A92046FFF74EFB2046FFF741FB20687F
:102DE000284320600FB0F0BD0010024000E100E079
:102DF000004400407047000010B5FFF775FD05491D
:102E00000A68402002430A600521090788621020F1
:102E1000886110BD003001400CB50EA103C90191BD
:102E2000009005226946302000F08FF8052269469F
:102E3000102000F013F8002069460A5CA52A03D18F
:102E4000401CC0B20528F8D3052801D001200CBDD4
:102E500000200CBDA5A5A5A5A5000000F7B5052778
:102E600010263F071546BE6201F0D8FA002406E09E
:102E7000FF2001F0D3FA01990855641CE4B2AC427A
:102E8000F6D3BE61FEBD30B5052510242D07AC621A
:102E900001F0C4FAFF2001F0C1FAAC6130BD10B5F9
:102EA00004460620FFF7EFFFC108C900002C0AD036
:102EB000012C04D0022C04D0032C04D107E0022002
:102EC00000E004200143062000F055F810BD062064
:102ED000F8E700B5052A00D90522052800D9052004
:102EE0000A30C0B200F031F800BD10B5044606202B
:102EF000FFF7C9FFD72210400146002C04D0012C57
:102F000004D0022C04D005E0202002E0114001E0B2
:102F100008200143062000F02EF810BD00B5052959
:102F200000D905210A460146102000F00EF800BD28
:102F300030B5402405252D07AC620A460146A02085
:102F400000F003F8AC61FF2030BDF7B5102605276F
:102F50003F071546BE622021084301F05FFA0024B6
:102F600005E00198005D01F059FA641CE4B2AC423E
:102F7000F7D3BE61FEBD70B5102405252D070E46A2
:102F8000AC622021084301F049FA304601F046FACC
:102F9000AC6170BD8307FF22DB0E9A408907090EE2
:102FA000994000280BDA0007000F0838830808480A
:102FB0009B001818C36993430B43C3617047830890
:102FC00004489B001B18186890430843186070471A
:102FD00000ED00E000E400E08307FF22DB0E9A40F2
:102FE0008907090E994000280BDA0007000F0838FE
:102FF000830808489B001818C36993430B43C361B7
:103000007047830804489B001B18186890430843C6
:103010001860704700ED00E000E400E030B54C00BF
:10302000104902466118006849780346012907D013
:10303000022907D0042909D000205918116030BD99
:103040001878FAE704785878240208E004785D7864
:1030500024062D0425439C78D87824022C43204351
:10306000EBE700009E480008704700000449C9686B
:10307000F0221140034A0909515CC8407047000022
:1030800000100240D04800080349C968034A4905B6
:10309000490F515CC840704700100240E9480008E1
:1030A0000349C968034A8904490F515CC840704705
:1030B00000100240E948000810B50F49CA680C200A
:1030C00002400E4805D0042A09D0082A0FD00C2A45
:1030D0000FD049680904490F491C884010BDFFF70B
:1030E00069F9002801D0064810BD064810BD064801
:1030F00010BD00F00BF810BD001002400080000071
:1031000000093D000024F40000127A0010B50E4CB6
:10311000E06801210904084205D1FFF74BF90028B6
:103120000FD00A4A00E00A4AE0680002810FE06816
:10313000084B8002000F185C491C5043FCF7D8FF75
:1031400010BD054AF0E700000010024000093D00F4
:1031500000127A00E04800080024F40000B5402086
:1031600005210907886220211120FFF704FF0121B2
:103170000846FFF700FF01210220FFF7FCFE0321B4
:103180000846FFF7F8FEF0210420FFF7F4FE502078
:1031900000F03CF80320FFF782FE0220FFF7A5FEB7
:1031A00005210748FFF7BAFE05490522491D002001
:1031B000FFF78FFE0C210020FFF7DDFE00BD0000B1
:1031C0009448000870B5402405252D070646AC62DA
:1031D0000020FFF758FE0222002E04D0012E06D058
:1031E000022E08D00DE041084900114306E00121FC
:1031F0000843104301E0FD21084001460020FFF78D
:10320000BAFEAC61822001F001F970BD410600B543
:10321000490E0520FFF7AFFE00BD01090A22000795
:103220005143000F4018C0B270470022014602E02F
:103230000A39C9B2521C0A29FAD21007000E0843F3
:10324000704770B504460068C168490613D4002170
:10325000C943C160FDF7AEFD7D260546F60006E0D8
:10326000FDF7A8FD401BB04201D9032070BD2068C6
:10327000C0684006F4D5002070BD000000B587B0DE
:10328000002269460E48FEF7EDFA002205A90C4817
:10329000FEF7C6FA0A486946C97D14388180694636
:1032A000497D81716946897DC171694609780170DE
:1032B00069464978417069468978817007B000BDD8
:1032C0006402002010B50248FEF78EFA10BD00001F
:1032D0006402002070B586B00024039404940B9E11
:1032E0000A9D6C46E0756175A27523706570A670C5
:1032F000002269460548FEF7BBFB002205A90348EA
:10330000FEF754FB002006B070BD000064020020F0
:10331000704710B5FDF75AFEFEF738FC10BD0000EF
:1033200010B59AB0342101A8FCF711FF142115A89B
:10333000FCF70DFF1C210EA8FCF709FF24480168CB
:103340000322D2029143C214891801600A2001901D
:103350001020059002200A90400401210C900001E9
:10336000069100240D9004910B9401A8FEF720F81B
:10337000002802D0FF2047301EE00F2015900320C8
:103380001690179418940121199415A8FDF71EFFA3
:10339000002802D0FF2054300EE02B2013940E9012
:1033A000012040040F90109411940EA8FDF75CFECC
:1033B00000280AD0FF205E30009006A309A2202139
:1033C0000B4800F0B9F900F0DFF91AB010BD0000A9
:1033D000007000402E2E2F5372632F6D61696E2E88
:1033E000630000006572723A25732C25640D0A0093
:1033F000F800002010480168821511430160C1687F
:103400000E4A1140C16001680D4A11400160816897
:1034100049084900816001680122920491430160DA
:10342000C168FD2212049143C16000210161054978
:10343000C003886070470000001002400C40FF8805
:10344000F6FFF6FE00ED00E010B50248FEF795FC31
:1034500010BD0000C402002070B5026801239B0764
:10346000114C124D984203D0A04201D0A84203D182
:103470007026B2434E683243984203D0A04201D036
:10348000A84204D103231B029A43CB681A4380232A
:103490009A430B691A4302608A68C26209688162B2
:1034A0000121416170BD000000080140001401408D
:1034B00010B5CB06DB0E0121046A99408C430462EF
:1034C000016A9A401143016210BD30B58468FF253E
:1034D0002D021B021343AC430B432343836030BDD7
:1034E000826870239A430A4307210A438260704727
:1034F00030B5026A520852000262026A4568836966
:103500007024A3439C080B68A40023430224A24315
:103510008C6845601443836149684163046230BD2F
:1035200030B5026A10239A430262036A45688269D1
:1035300073242402A2430C682402144320229343E0
:103540008A68456012011A43846149688163026296
:1035500030BD30B5026AFF2301339A430262026A2A
:103560004568C3697024A3439C080B68A4002343E7
:1035700001246402A2438C68456024021443C361A1
:103580004968C163046230BD30B5026A01231B0380
:103590009A430262036A4568C26973242402A24303
:1035A0000C68240214430122520393438A68456045
:1035B00012031A43C46149680164026230BD30B528
:1035C000036A046A6408640004628469F025AC43F9
:1035D000120122430A24A3430B438261036230BDDC
:1035E00030B5036A1024A34303628469036A0F257C
:1035F0002D031203AC432243A024A3430901194322
:103600008261016230BD000002488068002800D05D
:1036100000477047080000200248C068002800D01A
:103620000047704708000020F8B53F4D202128468C
:10363000FCF78DFDA81C3D4E009072781421684661
:10364000FCF71CFF70783A4C002802D001285FD1AB
:1036500034E0A28900216846FCF710FFA28A01210C
:103660006846FCF70BFF228C09216846FCF706FF31
:10367000628C0A216846FCF701FF2E4CA2880D21BE
:103680006846FCF7FBFEA2790E216846FCF7F6FEC1
:10369000E2790F216846FCF7F1FE22781021684696
:1036A000FCF7ECFE627811216846FCF7E7FEA27891
:1036B00012216846FCF7E2FE012028E0628903211E
:1036C0006846FCF7DBFE228B05216846FCF7D6FE38
:1036D000E28A04216846FCF7D1FEA27E06216846F4
:1036E000FCF7CCFEE2880B216846FCF7C7FE228976
:1036F0000C216846FCF7C2FEA28B07216846FCF746
:10370000BDFEE28B08216846FCF7B8FE0020707011
:103710001E21A81C009500F063FE02461321684696
:10372000FCF7ACFE0020F8BD940000200000002053
:10373000D4000020500200200FB41CB50246002027
:1037400007AC00290BD0491E01910092064B6A4636
:103750002146069800F034F8009A002111701CBC34
:1037600008BC04B0184700008D39000830B4744616
:10377000641E2578641CAB4200D21D46635D5B006D
:10378000E31830BC184700000125044CAD0332207B
:10379000FDF746FA606968406061F8E7000800508C
:1037A00002E008C8121F08C1002AFAD1704770470A
:1037B000002001E001C1121F002AFBD17047000068
:1037C000FFB58DB00F460546002606E025280AD035
:1037D000109A0F9990476D1C761C28780028F5D117
:1037E000304611B0F0BD00240121674A009400E08A
:1037F00004436D1C2B780846203B98401042F7D1BB
:1038000028782E2815D10420044368786D1C2A28B6
:103810000AD101CF6D1C00900BE000990A225143A0
:10382000303940186D1C009028780146303909293C
:10383000F3D92878692843D006DC0028D0D0632843
:103840000BD0642804D13BE073280FD075284CD0EE
:10385000109A0F999047761C94E038786946087260
:103860000020487202A80190012003E0386801900E
:103870000020C0433F1D61070CD5002400E0641CFC
:1038800000998C420FDA8442F9DB0199095D002925
:10389000F5D108E0002400E0641C8442FCDB0199BF
:1038A000095D0029F8D1361907E0019801990078DF
:1038B000491C0191109A0F999047641EF5D261E05E
:1038C0000A20019001CF002802DA40422D2102E0B7
:1038D000210504D52B216A461172012103E0E1077D
:1038E00001D02021F7E70C9104E00A20019001CFDC
:1038F00000210C910BA90B9108E00199FCF7F8FB52
:103900000A460B993032491E0B910A700028F4D1F7
:103910000B9803A9081A20300190600701D5009880
:1039200001E0012000900199884203DD01460198E1
:10393000081A00E000200024009006E002A8109A77
:10394000005D0F999047641C761C0C988442F5DB4F
:1039500004E0109A30200F999047761C0099481E79
:1039600000900029F5DC08E00B980B990078491CC1
:103970000B91109A0F999047761C0199481E01905F
:103980000029F1DC6D1C28E7092801004A68002A9B
:1039900006D00A68531C0B6010704868401E4860CF
:1039A0007047000010B5FFF7D1F90B4801684908CE
:1039B0004900016001682022114301600168012271
:1039C00011430160064905480860064800F0B8FB4D
:1039D000054800F0AFFB10BD0044004075480008EA
:1039E0001400002005480008CD41000810B5044926
:1039F000042008700121024800F094FB10BD000073
:103A00003C0300200149486070470000200000206E
:103A1000F8B50022164600920278002904D0FA4D2B
:103A2000AB68002B01D09847F8BD441C0120F74F2C
:103A3000491E1300FFF79AFE1B100F0F0F1F0F0FE9
:103A40000F0F0F0F0FFE96FDFC0F0F0F8C0FFB0FCC
:103A50000FFAF9F80F00E7E7022904D00020C0436D
:103A6000A863E863F8BD2178A96300906078E863F3
:103A700002200090F8BD6A46E549204600F03EFC71
:103A8000E44E6A463060E249204600F037FC706040
:103A90006A46E149204600F03CFCB0606A46DE49D7
:103AA000204600F036FCF0606A46DB49204600F014
:103AB00030FC30616A46D849204600F02AFC70612B
:103AC0006A463946204600F019FC7F21B0616A46FB
:103AD000C905204600F01DFCF0616A46CC4920462D
:103AE00000F00CFCCD4F30626A463946204600F0AB
:103AF00010FC70626A463946204600F00AFCB0624B
:103B00006A463946204600F004FCF0626A463946AF
:103B1000204600F0FEFB30636946204600F00FFCB3
:103B200070636946204600F00AFCB0630098314695
:103B3000225C20310A77401C00906A46B849204632
:103B400000F0E7FB3064E968002993D0304607E0D5
:103B50006A46B449204600F0DCFB28646969CEE27D
:103B60008847F8BDAB4E21784436317000906078BC
:103B7000707002200090A078B07003200090E07870
:103B8000F070042000906A463946204600F0C1FBE0
:103B900070606A463946204600F0BBFBB0606A465A
:103BA0003946204600F0B5FBF0606A4639462046AB
:103BB00000F0AFFB30616A463946204600F0A9FBB1
:103BC00070616A463946204600F0A3FBB0616A4640
:103BD0003946204600F09DFBF0616A463946204692
:103BE00000F097FB30626A463946204600F091FBB0
:103BF00070626A463946204600F08BFBB0626A4626
:103C00003946204600F085FBF0626A463946204678
:103C100000F07FFB30636A463946204600F079FBAE
:103C200070630098215C06E062E24DE239E217E23F
:103C3000D2E06BE266E2401C0090002901D0012234
:103C400000E00022734964310A76225C401C009037
:103C5000002A01D0012000E0002048766A466B4926
:103C6000204600F056FBF0636A466849204600F0A3
:103C700050FB30646A466549204600F04AFB706498
:103C80006A466249204600F044FBB0646A466449D3
:103C9000204600F03EFBF0646A466149204600F091
:103CA00038FB30656A465949204600F032FB7066A1
:103CB0006A465649204600F02CFBB0666A465349D6
:103CC000204600F026FBF0666A465049204600F088
:103CD00020FB30676A464D49204600F01AFB7067AA
:103CE0006A464A49204600F014FBB0676A464749D5
:103CF000204600F00EFBF0674648009FC430E119F3
:103D000008220646FCF70AFA08376A463F49204669
:103D1000009700F0FEFAB0606A464149204600F084
:103D2000F8FAF0606A463E49204600F0F2FA306147
:103D30006A463B49204600F0ECFA70616A46334916
:103D4000204600F0E6FAB0616A463549204600F0A8
:103D5000E0FAF0616A463249204600F0DAFA306251
:103D60006A462F49204600F0D4FA70626A462C4910
:103D7000204600F0CEFAB0626A462449204600F0A0
:103D8000C8FAF0626A462649204600F0C2FA30635B
:103D90006A462349204600F0BCFA70636946204613
:103DA00000F0CDFAB0636A461D49204600F0B1FA32
:103DB000F0636A461A49204600F0ABFA30646A465E
:103DC0001749204600F0A5FA7064A969002900D1BE
:103DD000C7E610484430C3E6134E21783170009096
:103DE0006946204600F0C5FA70606A4639462046AA
:103DF00000F08FFAB0600098215C401C0090002910
:103E000014D0012013E000002000002000007A44BC
:103E1000000020413C0700200000C84200401C4632
:103E2000002474490050C347480800200020307324
:103E30006946204600F093FA30610098B54F215C46
:103E40003175401C0090215C3176401C00906A4620
:103E50003946204600F05DFAF0616A463946204650
:103E600000F057FA30626A463946204600F051FAAF
:103E700070626A463946204600F04BFAB0620098FC
:103E8000215C401C0090002900D00121A24F397311
:103E9000215C401C0090002901D0012000E000209E
:103EA00078736A469B49204600F033FA30636A46CD
:103EB0009849204600F02DFA70630098215C401C60
:103EC0000090002900D001213976215C401C00902F
:103ED000002901D0012000E0002078766A468D4953
:103EE000204600F016FAF06300988B4F215C2037D3
:103EF0003970401C00906A468649204600F009FA55
:103F000070646A468349204600F003FAB0646A464A
:103F10008049204600F0FDF9F0640098215C401CC7
:103F20000090002900D001213974215C401C0090D0
:103F3000002900D001217974215C401C00900029E7
:103F400000D00121B974215C401C0090002900D0F0
:103F50000121F974215C401C0090002901D001204E
:103F600000E0002038756B4F6A463946204600F065
:103F7000D0F9694E6A46203EB0653946204600F0C9
:103F8000C8F9F0650098215C401C0090002900D021
:103F90000121614E40363170215C401C00900029A7
:103FA00001D0012000E0002070706A465949204687
:103FB00000F0AFF9584F6946203F7866204600F080
:103FC000CEF9B8666946204600F0D3F9F866009845
:103FD0006A46215C3174401C00904E49204600F036
:103FE00098F978676A464B49204600F092F9B8671D
:103FF0006A464849204600F08CF9F8676A46454908
:10400000204600F086F93E46803630606A464149D7
:10401000204600F07EF970606A463E49204600F076
:1040200078F9B0600098215C401C0090002900D015
:1040300001213173215C401C0090002901D0012036
:1040400000E0002070736A463249204600F061F9B2
:104050003061E969002900D183E52F4820387FE5E8
:104060006A463946204600F054F968646A46394683
:10407000204600F04EF9294A0146A8640098235CC6
:104080009355401C761C0090082EF7DB23562B70AE
:10409000401C00902C6A002CDED0204A686CA0479F
:1040A000F8BD1F4E6A463146204600F032F9E864FA
:1040B0006A463146204600F02CF928656A6A0146B6
:1040C000002AEDD0E86C11E0154E6A4631462046D4
:1040D00000F01FF968656A463146204600F019F97C
:1040E000A865AA6A0146002ADAD0686D9047F8BD33
:1040F0006A460B49204600F00CF9E865E96A002998
:10410000ADD1F8BD286B02E08047F8BD686B002890
:10411000FAD1F8BD00007A44680800208000002031
:1041200000247449024A5268002A00D010477047A0
:10413000200000200149C8607047000020000020D6
:1041400010B50022034900F097FA0348FFF75AFC24
:1041500010BD0000FD4700082D48000810B50021E3
:1041600000F094FA10BD0000F8B50C4C207800283F
:1041700012D0002501272570094EBF0208E0705CAF
:10418000491C6160FFF7EAFF6068B84200D16560D2
:104190006168A0688142F2D1F8BD0000880000206B
:1041A000DC080020084A074B91685854491C01203C
:1041B00080029160814201D1002090600120107046
:1041C00070470000DC0800208800002070B5244EF5
:1041D0000446C0683146FBF7CFFFFCF75AF8214D83
:1041E00031462883A068FBF7C7FFFCF752F8E88246
:1041F0002068FCF74EF8A876A06BFCF738F81A494F
:10420000FBF7F7FFFCF745F8A8820121E069C90533
:10421000884201DA09024840FCF73BF80721FBF726
:1042200067FF124EA8813146E06AFBF7A5FFFCF755
:1042300030F8A8833146206BFBF79EFFFCF729F886
:10424000E8833146606AFBF797FFFCF722F8288481
:104250003146A06AFBF790FFFCF71BF8688470BD3D
:1042600000002041D4000020CF420B440000C8428F
:10427000F0B585B0074614216846FBF768FF38465D
:10428000002410250226104F00280FD0042004908F
:10429000029469460196009503943846FCF7CEFCDB
:1042A00000210A48FDF700FF05B0F0BD00210748D6
:1042B000FDF70CFF01946946384602960095039479
:1042C000FCF7BCFCF0E700000004005000030020F5
:1042D00010B5FEF763FB00210348FDF7E5FE024938
:1042E00000200968486310BD0003002002480068F0
:1042F0000068C007C00F70470003002010B50C46CF
:10430000114600F011F8FBF7B2FF2146FBF771FFF1
:1043100010BD10B50C46114600F011F8FBF7A7FFD1
:104320002146FBF766FF10BD0A68131858781B7802
:104330000002184340BA921C00B20A60704770B580
:104340000C6805460E466019FBF70CFF00BAED1C21
:10435000000A615D00020843241D346070BD0A68D4
:10436000131858781B7800021843921C40BA0A6050
:10437000704770B50C6805460E466019FBF7F2FEF3
:1043800000BAED1C000A615D00020843241D346080
:1043900070BD000010B510490E48086000F04CFADE
:1043A00000F05EF8FFF794FFFEF734FC0B48FDF7D2
:1043B0006BFC0720FEF767FD01462720FEF7DBFDBB
:1043C000FF21E220FEF7D7FDFF21E120FEF7D3FD1C
:1043D00010BD0000F14500080C000020C4020020C0
:1043E00070B5034600200246074C09E01D78060A16
:1043F00075406D00655B00024540521CA8B25B1C15
:104400008A42F3D370BD0000F248000802E00021A8
:10441000491EFDD2401EFAD27047000010B500229E
:104420000D4B0E4903E0521C92B29A420AD28C689C
:10443000A407E40FF7D00873002005E0401C80B209
:10444000984201D3002010BD8A68D207D20FF5D060
:10445000C868C0B210BD0000FEFF0000003001407F
:1044600010B504210648FDF71FFE0C210448FDF796
:104470001BFE03480021026891630068016410BDBF
:104480008802002010B5642900D964210B4A012854
:1044900014680AD0022807D108467D21C900484384
:1044A0006421FBF725FE206410BD08467D21C9006C
:1044B00048436421FBF71CFEA06310BD8802002066
:1044C00008B500273E46FCF789FDFEF729FFFEF7F9
:1044D000C1F8FEF7A3F8FEF749F9FEF7E1FBFEF796
:1044E0008BFC0125AD03344C05E0C820FCF798FB9C
:1044F000606968406061FEF78FFC0028F5D1FEF727
:104500002DFE0120FEF75EFE2C48002101700122E5
:1045100002702C482A4A026041607F228260016159
:104520004161FF228161C260C161FDF7C9F90028C4
:1045300009D0FB20009024A327A220212948FFF7BF
:10454000FBF8FFF721F900211E48FDF73FF9264946
:10455000884206D0FEF75EF9234A00211948FDF78C
:104560003BF9FFF717FFFFF71DFAFDF7D7FFFFF73E
:10457000FBFDFCF71FFCB8420FD9FCF71BFC7D21AB
:10458000C9004718FEF77AFE0C480078022801D1CE
:10459000FFF72CFA606968406061FCF70BFCB042E1
:1045A000E5D9FCF707FC06460E49323603222439CA
:1045B0000E48FCF715FADAE7000800500400002066
:1045C00000280040640200202E2E2F5372632F6DAE
:1045D00061696E2E630000006572723A25732C25A6
:1045E000640D0A00F8000020F232000018010020DB
:1045F000F8B501261D48B60386610720FEF743FC87
:10460000044601462720FEF7B6FCE00604D5FF214C
:10461000E120FEF7B0FC26E060060027144D0028DC
:1046200016DA6020FEF72FFC024620281BD811491D
:104630006120FEF713FCFF21E220FEF79CFCFBF754
:1046400083FF00280FD16F80FEF7BCFD2F700AE0BA
:10465000A00608D5FF21E120FEF78DFC6F80012028
:104660002870FEF7AFFD01488662F8BD00080050D3
:1046700000000020B400002021235B015A43024BBC
:10468000D218916050607047DC0C0020F8B50C46E1
:10469000212149012B4F4C43395D02223D465302F3
:1046A0006519EE180B00FFF761F80705151823359B
:1046B00037394A00022802D0032803D03FE0385D92
:1046C000801C01E0385D401C38556A700020B061E4
:1046D000E860F8BD0002E86006E0E96801431A48B6
:1046E000E960491E81422AD8385D401C38550FE0E8
:1046F000144BB169CF182346491C1033B161F854EB
:10470000B069E968884203D10E48015D491C015532
:104710006A70F8BD7077E7E73077E5E703280ED1D8
:1047200028461030E9680090FFF75AFEB18B8842A6
:1047300005D1AA68002A02D0E968009890470020B5
:104740003855F8BDDC0C0020FF010000F7B5012052
:1047500040020D4681423ED8431021204001424391
:104760001D481418E11DFF31FA31481CEAB29D4280
:1047700004D802230B7402741F4606E003230B7453
:10478000290A017415481F4602552126E0193601F1
:1047900080192A460099FBF7C1FC7F192946009829
:1047A000FFF71EFEE119FF31FF31020A02310A74E0
:1047B0007F1CE119FF31FF3102310874791C621846
:1047C000FF32FF320320023210746268B91C002AE3
:1047D00001D0A0199047FEBDDC0C002012020000A1
:1047E000054800214278002A03D04178491E4170D3
:1047F0007047017070470000DC0C002010B5FFF717
:1048000007F910BD074A91420BD8002909D0064A82
:10481000D3691B06DB0FFBD003789362401C491E53
:10482000F6D17047050200000044004010B5002298
:10483000FFF78CFF10BD000010B5FEF73BF900211B
:104840000348FDF731FC024900200968486310BDA8
:10485000880200207D21C900884200D9084603490A
:10486000401803490968486370470000E7030000E7
:104870008802002010B5064CE0698006C00F03D006
:10488000606AC0B2FFF78EFC0820206210BD0000F5
:10489000004400404655434B214655434B210002FE
:1048A00001020204030204020502060107020802D3
:1048B00009020A020B020C020D010E010F01100188
:1048C0001101120113021401150216021702180138
:1048D00000000000000000000102030406070809B0
:1048E000030406080C101820300000000001020329
:1048F000040000002110422063308440A550C660AF
:10490000E770088129914AA16BB18CC1ADD1CEE18C
:10491000EFF13112100273325222B5529442F77203
:10492000D662399318837BB35AA3BDD39CC3FFF3DC
:10493000DEE36224433420040114E664C774A44413
:1049400085546AA54BB528850995EEE5CFF5ACC52C
:104950008DD55336722611163006D776F6669556E3
:10496000B4465BB77AA719973887DFF7FEE79DD77C
:10497000BCC7C448E5588668A77840086118022873
:104980002338CCC9EDD98EE9AFF9488969990AA9CC
:104990002BB9F55AD44AB77A966A711A500A333A43
:1049A000122AFDDBDCCBBFFB9EEB799B588B3BBB1C
:1049B0001AABA66C877CE44CC55C222C033C600CD3
:1049C000411CAEED8FFDECCDCDDD2AAD0BBD688D6C
:1049D000499D977EB66ED55EF44E133E322E511E23
:1049E000700E9FFFBEEFDDDFFCCF1BBF3AAF599FBC
:1049F000788F8891A981CAB1EBA10CD12DC14EF15C
:104A00006FE18010A100C230E320045025404670C1
:104A10006760B9839893FBA3DAB33DC31CD37FE3EC
:104A20005EF3B1029012F322D23235421452776211
:104A30005672EAB5CBA5A89589856EF54FE52CD5BC
:104A40000DC5E234C324A014810466744764245461
:104A50000544DBA7FAB79987B8975FE77EF71DC7CC
:104A60003CD7D326F2369106B016576676761546B1
:104A700034564CD96DC90EF92FE9C899E9898AB91C
:104A8000ABA94458654806782768C018E108823801
:104A9000A3287DCB5CDB3FEB1EFBF98BD89BBBAB2C
:104AA0009ABB754A545A376A167AF10AD01AB32A51
:104AB000923A2EFD0FED6CDD4DCDAABD8BADE89D7C
:104AC000C98D267C076C645C454CA23C832CE01CA1
:104AD000C10C1FEF3EFF5DCF7CDF9BAFBABFD98F0C
:104AE000F89F176E367E554E745E932EB23ED10EF1
:104AF000F01E0000144B000800000020940000008D
:104B0000A0370008A84B0008940000206C14000097
:104B1000B0370008010000000000000000000000A5
:104B20000000000000000000000000000000200065
:104B30000000000000000000000000000000000075
:104B40000000000000000000000000000000000065
:104B50000000000000000000000000000000000055
:104B60000000000000000000000000000000000045
:104B70000000000000000000000000000000000035
:104B80000000000000000000000000000000000025
:104B90000000000000000000000000000000000015
:084BA00000000000000000000D
:04000005080000C12E
:00000001FF
