:10000D0053797374656D20696E697469616C697A71
:10001D006174696F6E20697320636F6D706C6574A8
:10002D0065210D0A00596F75207072657373207408
:10003D006865206C65667420627574746F6E0D0A48
:10004D0000596F7520707265737320746865205246
:10005D006967687420627574746F6E0D0A0053754C
:10006D006363657373206F662073656E64696E6775
:10007D0020646174610D0A004661696C65642074C9
:10008D006F2073656E6420646174610D0A005265A2
:10009D0063656976696E6720746865206461746153
:1000AD002C2066726F6D20746865204C6566740D2A
:1000BD000A00526563656976696E6720746865200C
:1000CD00646174612C2066726F6D207468652052B6
:0700DD00696768740D0A0059
:1002CC0020204100000000000000000000000000A1
:1002DC000000000000000000000000000000000012
:1002EC0000000020202100000000000000000000A1
:1002FC0000000000000000000000000000000000F2
:06030C00000000000000EB
:1000E400E4F513918791F21103C29691F2D296919D
:1000F400F2C29691F2D29691F27BFF7A00790D9139
:100104004A7192D2B0D2B130B00320B15E7FF47E96
:100114000191C1E4F54120B00D7541AA7BFF7A003D
:100124007932914A800E20B10B7541557BFF7A00DC
:10013400794E914A7B007A00794131A4EF640170D1
:10014400207BFF7A00796B914AE541B4AA04C296F8
:100154008007E541B45502C2B591F2D296D2B5807A
:10016400087BFF7A007985914A7192E4F521D29651
:10017400D2B5FB7A00792171C3EF6087E521B4AA77
:100184000CC2967BFF7A00799B914A800FE521B4DB
:10019400550AC2B57BFF7A0079BF914A91F22107D3
:0E031200050D3443101001050834431010018E
:07000300C294D295C29222C3
:10046C00E4FEEF339293EF25E0FFD292D290A2906C
:0A047C00E4334207C2920EBE08E806
:010486002253
:04049C007DFF7F273A
:0E04A000C295916CAC07AF05916CD295AF047C
:0104AE00222B
:0A050E00C295916CE4FF916CD29548
:0105180022C0
:0603F2008B188A19891A1C
:1003F800C295916CAD07E4FCECC3951B5015E4FF66
:10040800916CAB18AA19A91A8C82758300EF713AFE
:070418000C80E5D295AF0551
:01041F0022BA
:07035C007B00751D057F2ADF
:060363008B1A8A1B891CA5
:10036900C295916CAD07E4FCECC3951D5016AB1A10
:10037900051CE51CAA1B7002051B14F97121FF91CC
:080389006C0C80E4D295AF0575
:010391002249
:1004D300C2947D0D7F2091A0D2947F147E0081C1B0
:10039200C2947A00790812035C7D017F2191A07FCB
:1003A2002291A07D287F2591A07D207F3191A07D83
:1003B200277F2691A07D0F7F2091A012049CD294CA
:0103C2002218
:0F04E300C2957FE1916C7F0A7E0091C1D2952274
:0601A4008B148A15891678
:1001AA0091D3C2947B007A00790D751D057F307159
:1001BA00637A00790D12035CAB14AA15A916751D92
:1001CA00207FA071637D017F2191A07F2291A07D74
:1001DA001A7F2491A07D287F2591A01D7F2691A0BA
:1001EA007D0E7F2091A0D291D2947FF47E0191C19D
:1001FA00C294E4F517F518309125D3E5189420E553
:10020A0017944E400AE4F517F518B1017F0022054C
:10021A0018E518700205177F0A7E0091C180D87F01
:10022A0007B10EEF30E50812049C91E37F01229199
:05023A009C91E37F0030
:01023F00229C
:0603C3008B148A15891657
:1003C900E4FBD29120911F7F07B10EEF30E613AB0A
:1003D90014AA15A916751B207F6171F27B01919CE6
:0803E9008004B101E4FBAF0345
:0103F10022E9
:1004AF00C295BF01067FE1916C80047FE2916CD20F
:0204BF00952284
:0D050100E4FF91AF7F0191AF919CD2912258
:0E04F20000007F097E687D8BDDFEDEFCDFFAF8
:0105000022D8
:1004C100EF4E600DE4FD0DBD01FCEF1F70F21E80CB
:0104D100EF3B
:0104D2002207
:10048700438E805389F0758A3F758CFFC28CC2A951
:05049700D299D2AF2252
:10042000C2B1D28CD2A9D2002000FDE4FEEF13921B
:10043000B1EFC313FFD2002000FD0EBE08EFD2B112
:09044000D2002000FDC28CC2A90B
:010449002290
:10044A008B148A158916AB14AA15A9167121601185
:10045A000516E5167002051514F97121FF91208021
:02046A00E52289
:02000B00A11939
:07051900C2AFC200D2AF32F5
:03000000020240B9
:0C024000787FE4F6D8FD7581600202872B
:10032100BB010689828A83E0225002E722BBFE02DA
:09033100E32289828A83E493220D
:10033A00F8BB010DE58229F582E5833AF583E8F0F9
:10034A00225006E92582C8F622BBFE05E92582C8A5
:02035A00F2228D
:10024C000200E4E493A3F8E493A34003F68001F2E4
:10025C0008DFF48029E493A3F85407240CC8C333B3
:10026C00C4540F4420C8834004F456800146F6DF82
:10027C00E4800B01020408102040809002CCE47E44
:10028C00019360BCA3FF543F30E509541FFEE49377
:10029C00A360010ECF54C025E060A840B8E493A33E
:1002AC00FAE493A3F8E493A3C8C582C8CAC583CA69
:1002BC00F0A3C8C582C8CAC583CADFE9DEE780BE21
:0103200000DC
:00000001FF
